:020000040800F2
:10000000B8080020A101000815030008FD0200083F
:1000100011030008AF020008D50600080000000028
:100020000000000000000000000000004D03000878
:10003000F902000800000000410300085103000815
:10004000BB010008BB010008BB010008BB010008A0
:10005000BB010008BB010008BB010008BB01000890
:10006000BB010008BB010008BB010008BB01000880
:10007000BB010008BB010008BB010008BB01000870
:10008000BB010008BB010008BB010008BB01000860
:10009000B5020008BB010008BB010008BB01000855
:1000A000BB010008BB010008BB010008BB01000840
:1000B000BB010008BB010008BB01000809030008E0
:1000C00001030008BB010008BB010008BB010008D8
:1000D000BB010008E50400089505000815060008A6
:1000E000BB010008BB010008BB010008BB01000800
:1000F000BB010008BB010008BB010008BB010008F0
:10010000BB01000845030008BB010008BB01000853
:10011000BB010008BB010008BB010008BB010008CF
:10012000BB010008BB010008BB010008BB010008BF
:10013000BB010008BB010008BB010008BB010008AF
:10014000BB010008BB010008BB010008BB0100089F
:10015000BB010008BB010008BB010008BB0100088F
:10016000BB010008BB010008BB010008BB0100087F
:10017000BB010008BB010008BB0100080000000033
:10018000BB010008BB010008DFF810D000F05EF8EA
:100190000048004765190008AFF30080B808002048
:1001A0000648804706480047FEE7FEE7FEE7FEE711
:1001B000FEE7FEE7FEE7FEE7FEE7FEE7690300086D
:1001C00089010008D2B201E000F8012B491EFBD2E0
:1001D00070470022F6E710B513460A460446194652
:1001E000FFF7F0FF204610BD2DE9F05F0546002027
:1001F00092469B4688460646814640241BE0284698
:1002000041464746224600F042F853465A46C01A35
:10021000914110D311461846224600F029F82D1AB4
:1002200067EB01084F4622460120002100F020F82C
:1002300017EB00094E41201EA4F10104DFDC484603
:1002400031462A464346BDE8F09F0000064C074D64
:1002500006E0E06840F0010394E807009847103496
:10026000AC42F6D3FFF794FFE431000804320008F3
:10027000202A04DB203A00FA02F100207047914066
:10028000C2F1200320FA03F3194390407047202A5B
:1002900004DB203A21FA02F00021704721FA02F330
:1002A000D040C2F12002914008431946704700BF78
:1002B000FEE7000010B50C4A00210C4800F065FC78
:1002C0000948006832280AD10748007A38B9064838
:1002D000807A082803D101200549087002E0012036
:1002E0000449087010BD0000A00200200064004016
:1002F000360000203700002000BFFEE700BFFEE709
:1003000010B501F043F910BD10B501F09FF910BD13
:1003100000BFFEE700BFFEE710B5002807DA0A07B6
:10032000140E054A00F00F031B1FD45403E00A0704
:10033000130E024A135410BD18ED00E000E400E073
:1003400000BFFEE710B502F017F910BD00BFFEE7D1
:1003500010B504480068401C0249086000F0B0FC79
:1003600010BD0000000000201CB55A48006840F491
:100370007000584908605848006840F0010056492C
:10038000086000BF5448006800F002000028F9D05F
:1003900051480830006800F00C0008286ED100BFFA
:1003A0000020019002E00198401C01900198502823
:1003B000F9D34948083000680090009820F0F00018
:1003C0000090009840F08000009043490831009868
:1003D00008600020019002E00198401C0190019803
:1003E0005028F9D33C48083000680090009820F06D
:1003F000F0000090009840F09000009036490831DD
:10040000009808600020019002E00198401C0190D3
:1004100001985028F9D330480830006800900098BF
:1004200020F0F0000090009840F0A00000902A49D1
:100430000831009808600020019002E00198401CFB
:10044000019001985028F9D32348083000680090A3
:10045000009820F0F0000090009840F0B00000906C
:100460001D490831009808600020019002E00198C1
:10047000401C019001985028F9D300BF164808305D
:10048000006820F00300144908310860C82000F01B
:100490006EFB11480068114908400F490860084682
:1004A000006820F48020086000200B4908310860B3
:1004B00000BF09480830006800200028F9D108482A
:1004C0000549091D0860002003490C31086002F04D
:1004D00025FC1CBD88ED00E000380240FFFFF6FE61
:1004E0001030002410B52549254802F00BFEE8B174
:1004F0000521234802F0BDFDC0B122480088B0F5B7
:10050000FF7F0BDC1E4802F01DFDC1B21D480288B2
:100510000088401C1B4B18801B488154052118483B
:1005200002F08DFD1549164802F0DFFD1749144809
:1005300002F0E8FD00B30421114802F09AFDD8B1A1
:100540000F4802F0FFFC044600200F490D4A1288B4
:1005500088540B4802F002FE01200D49088000205B
:10056000084908804FF400710748FFF732FE074939
:10057000034802F0BAFD00BF10BD000005030500EE
:10058000001001400A00002058000020040304006D
:100590000800002010B51949194802F0B3FDC8B190
:1005A0000521174802F065FDA0B1154802F0CAFC0C
:1005B000C1B2144802680068401C124B186012480F
:1005C00081540E490E4802F090FD05210C4802F0BE
:1005D00036FD11E00D490A4802F094FD60B100209B
:1005E0000849086001200A4908700849044802F0D7
:1005F0007CFD034802F0A6FC10BD000005030500C9
:100600000044004030000020780200200403040071
:100610003400002010B52849284802F073FDE8B1E5
:100620000521264802F025FDC0B125480088B0F517
:10063000FF7F0BDC214802F085FCC1B22048028814
:100640000088401C1E4B18801E48815405211B4801
:1006500002F0F5FC1849194802F047FD1A491748FD
:1006600002F050FD30B30421144802F002FD08B33B
:10067000124802F067FC044600201249104A128812
:1006800088540F480288114802F07CFD012010496F
:10069000088000200A4908804FF400710948FFF7DC
:1006A00098FD0421094802F0CAFC0749034802F0FA
:1006B0001CFD00BF10BD0000050305000048004000
:1006C0000A0000205800002004030400001001402C
:1006D0000800002000BFFEE70FB4054B10B503A9CA
:1006E000044A029800F018F810BC5DF814FB0000F2
:1006F000A10F00085400002002E008C8121F08C122
:10070000002AFAD170477047002001E001C1121F92
:10071000002AFBD1704700002DE9FF4F8DB00F4636
:100720000546002606E025280BD0DDE90F1290478C
:100730006D1C761C28780028F5D111B03046BDE834
:10074000F08F0024A246A1460122E94900E00443BB
:1007500015F8013F203B02FA03F00842F7D1287850
:100760002A2810D06FF02F022878A0F13001092933
:1007700014D80AEB8A0102EB410144F0020400EBB9
:10078000010A6D1CF0E701CF5FEA000A03D544F4CB
:100790000054CAF1000A44F002046D1C28782E2887
:1007A00017D115F8010F44F004042A280ED06FF079
:1007B0002F022878A0F1300109290AD809EB890114
:1007C00002EB410100EB01096D1CF2E757F8049BB5
:1007D0006D1C28786C280FD006DC4C2817D06828B0
:1007E0000DD06A2814D104E0742810D07A280FD1D3
:1007F0000DE044F400140AE044F4801401E044F4F1
:1008000040146978814202D104F580146D1C6D1C7E
:1008100028786E281ED00CDC632830D004DC002839
:100820008BD0582811D19FE0642867D069280CD15B
:1008300064E073282DD004DC6F2872D0702804D1B6
:1008400094E075286ED078286DD0DDE90F129047BE
:10085000761C4BE1C4F30250022806D0032809D0CD
:10086000042801CF09D0066040E101CFF117C0E9AB
:1008700000613BE101CF068038E1067036E117F8F0
:10088000040B8DF8000000208DF80100EB460120DC
:1008900003E057F804BB4FF0FF3061074FF0000151
:1008A00002D40DE008F10101884649450FDA804580
:1008B000F8DB1BF808100029F4D108E008F1010169
:1008C00088468142FADB1BF808100029F6D1DDE9E1
:1008D0000F23AAEB08008146214600F031F930448D
:1008E00000EB080604E0DDE90F121BF8010B90474E
:1008F000B8F10108F7D221464846F2E00A21C4F3D4
:1009000002524FF0000B0891022A04D001CFC11708
:10091000032A09D00AE0FF1D27F00707F7E80201C4
:1009200008E02CE01EE01FE000B2C117042A01D14C
:1009300040B2C117021E71F1000206DA0023D0EBAB
:10094000030063EB01012D2202E0220504D52B22D6
:100950008DF82420012203E0E20701D02022F7E7EE
:10096000904653E00A210BE0102109E010214FF0DE
:10097000000B44F004044FF00809089103E008213B
:100980004FF0000B0891C4F30252022A04D001CFA9
:100990000021032A06D006E0FF1D27F00707F7E82D
:1009A000020103E080B2042A00D1C0B24FF0000877
:1009B00022072BD52A78702A07D0DDF820C08CF0CA
:1009C000100C5CEA0B0C05D00EE040228DF82420C0
:1009D000012208E050EA010306D030238DF82430CC
:1009E0008DF8252002229046089B83F0080353EAE5
:1009F0000B030BD150EA010201D1620706D5302268
:100A00008DF824204FF00108A9F101092A78582A0D
:100A100004D038A20B9208AA0A920BE03AA2F9E796
:100A20005B46089AFFF7E0FB0B9B9B5C0A9A521E01
:100A30000A92137050EA0102F2D10A98ADEB00005D
:100A400000F1200B600702D524F4803401E04FF060
:100A50000109D94502DDA9EB0B0000E0002000EB05
:100A60000B0141440890AAEB010AE00306D4DDE93A
:100A70000F232146504600F063F806444FF000096A
:100A800008E009A911F80900DDE90F12904709F102
:100A90000109761CC145F4DBE0030CD5DDE90F2329
:100AA0002146504600F04CF8064404E0DDE90F1200
:100AB00030209047761C0899481E08900029F5DCE4
:100AC00008E00A980A990078491C0A91DDE90F129A
:100AD0009047761CBBF10001ABF1010BF1DC214624
:100AE0005046DDE90F2300F019F806446D1C21E69D
:100AF00009280100303132333435363738396162F4
:100B000063646566000000003031323334353637B7
:100B10003839414243444546000000002DE9F04188
:100B2000044600251E461746880404D405E03946CD
:100B30002020B0476D1C641EF9D52846BDE8F08121
:100B40002DE9F041044600251E469046C80301D514
:100B5000302700E02027880404D505E041463846C8
:100B6000B0476D1C641EF9D52846BDE8F08108B574
:100B70000021009102E00099491C009100EB8001E6
:100B8000009AB2EB410FF6D308BD10B500F5D8734B
:100B900003EB01131B6803F004031372137A3BB9D0
:100BA00000F5D87303EB01131B685B0D136006E0BF
:100BB00000F5D87303EB01131B68DB08536000F5E5
:100BC000D87303EB01131B6803F00203537200F5A3
:100BD000DA7303EB01131B681B0AD37400F5DA7395
:100BE00003EB01131B6803F00F03937200F5DC7332
:100BF00003EB01131B68D37200F5DC7303EB0113E5
:100C00001B681C0A147300F5DC7303EB01131B68EB
:100C10001C0C547300F5DC7303EB01131B681C0EF2
:100C2000947300F5DE7303EB01131B68D37300F5B7
:100C3000DE7303EB01131B681C0A147400F5DE73EA
:100C400003EB01131B681C0C547400F5DE7303EBFB
:100C500001131B681C0E947421B9C36843F0200370
:100C6000C36003E0036943F02003036110BD00008B
:100C700038B51D240B48009002E00098401E0090FB
:100C8000802001F05FFF10B900980028F5D100988E
:100C900010B91324204638BD034801F04DFF20460B
:100CA000F9E70000A0860100FF07C00003490860C3
:100CB00000BF024909680029FBD1704704000020E9
:100CC0000448006820B103480068401E01490860DC
:100CD000704700000400002070B505460E4614461B
:100CE00019480560194806801948048001201949EF
:100CF00008708102184800F0DFFA4FF4847116483A
:100D000000F0C1FB40F20911134800F0BCFB4FF4A6
:100D10008571114800F0B7FB00BF40F201610E4839
:100D200000F073FB0028F8D1022C03D1A1020A487D
:100D300000F0CAFA084800F01FFC00BF0448008811
:100D40000028FBDC70BD0000440000204C000020A7
:100D5000480000204E000020005400402DE9F047DC
:100D600006460D4614464FF00009C846C246002705
:100D70002846E91705EB5171C910A5EBC10101F037
:100D8000FF0ACAF10800C7B22046E11704EB51710F
:100D9000C1F3C709E11704EB5171C910A4EBC101FC
:100DA00001F0FF08002040490870BAF1000F25D17A
:100DB0000EE008203D4908803D4805803D4806601A
:100DC00000F07AF800F0A2F805F10800C5B2083684
:100DD000B9F10000A9F1010101F0FF09E9D1B8F171
:100DE000000F5BD03148A0F80080314805803148C1
:100DF000066000F061F800F089F84FE0BC420ADAC2
:100E00002A4804802A4805802A48066000F054F8E1
:100E100000F07CF842E0E01B84B22046E11704EBCE
:100E20005171C1F3C709E11704EB5171C910A4EB6B
:100E3000C10101F0FF0867B11C4807801C4805800C
:100E40001C48066000F038F800F060F8E819C5B2F8
:100E50003E440EE0082015490880154805801548D5
:100E6000066000F029F800F051F805F10800C5B25D
:100E70000836B9F10000A9F1010101F0FF09E9D13B
:100E8000B8F1000F0AD00948A0F800800848058092
:100E90000848066000F010F800F038F80120024918
:100EA0000870BDE8F08700004E00002048000020D8
:100EB0004A0000204000002010B5002010490870B2
:100EC0004FF484710F4800F0DEFA40F209110D482A
:100ED00000F0D9FA4FF485710A4800F0D4FA00BF47
:100EE00040F20161074800F090FA0028F8D1054867
:100EF00000F042FB00BF044800880028FBDC10BD66
:100F00004E000020005400404800002008B500209A
:100F1000009040E000BF40F201611F4800F075FA08
:100F20000028F8D11C4800F027FB00BF4FF4A06157
:100F3000194800F06AFA0028F8D06FF0010217484B
:100F40000188154800F0F0FA00BF1348143000681B
:100F5000009040F20241009808400028F5D0009827
:100F600000F0020040B140F201510B4800F039FAA4
:100F7000094800F006FB08BD40F20A51064800F09F
:100F800030FA054800F0FDFA00BF0348006800F49D
:100F900000700028F9D1BDE7005400403C0000205B
:100FA00070B504460D46E1B2054801F0D0FF00BF20
:100FB0000621034802F05DF80028F9D0204670BDF4
:100FC00000100140F0B503461C6A5D6A00200DE088
:100FD0000126864016403EB187000F26BE40B4432E
:100FE000860001FA06F63443461CB0B20828EFD357
:100FF000082011E00126864016405EB1A0F10806E7
:10100000B7000F26BE40B543A0F10806B60001FAAE
:1010100006F63543461CB0B21028EBD31C625D6265
:10102000F0BD8162704781617047000010B54FF4D8
:10103000F8520C211848FFF7C5FF04220C2117486D
:10104000FFF7C0FF4FF4706301220221124800F045
:1010500051F84FF47063012200210F4800F071F83D
:101060004FF48053002202210B4800F043F84FF464
:10107000805301220021084800F063F80423012274
:101080000221064800F036F804230122002103481B
:1010900000F057F810BD000000080240000C0240AC
:1010A00010B540F6014000F017FF4022042110481F
:1010B000FFF788FF802204210D48FFF783FF4023BC
:1010C000012202210A4800F015F8402302220121E2
:1010D000074800F036F8802301220221044800F07E
:1010E00009F8802302220121014800F02AF810BDEE
:1010F00000040240F0B504460D4616462168E26839
:10110000002019E0012787401F409FB14FEA400CA3
:10111000032707FA0CF7B943470005FA07F73943E5
:101120004FEA400C032707FA0CF7BA43470006FAC8
:1011300007F73A43471CB8B21028E3D32160E260B6
:10114000F0BDF0B50C461546012C03D146681E4390
:10115000466002E046689E434660826800210DE0DA
:1011600001268E401E403EB14F000326BE40B243D2
:101170004E0005FA06F632434E1CB1B21029EFD3E9
:101180008260F0BD10B52AA0FFF7A6FA002413E094
:101190002D490C550846015D2CA0FFF79DFAE1177B
:1011A00004EB11710911A4EB01110F2902D125A043
:1011B000FFF792FA601C84B2FF2CE9DD4FF48072D5
:1011C00000212148FFF7CAFD22A0FFF785FA4FF45E
:1011D000807200212548FFF77FFD002421E023488D
:1011E000005D1949095D884209D02048015D17A0BA
:1011F000FFF772FA1EA0FFF76FFA012010BD1B481F
:10120000015D12A0FFF768FAE11704EB11710911F3
:10121000A4EB01110F2902D10AA0FFF75DFA601CAF
:1012200084B2FF2CDBDD1DA0FFF756FA0020E5E7B6
:101230000D0A415432344330322077726974696E3A
:10124000672E2E2E0D0A0000B402002030782530C3
:101250003258200041543234433032207265616488
:10126000696E672E2E2E0D0A00000000B4030020C8
:101270004572723A64617461207265616420616EC6
:1012800064207772697465206172656E2774206DC1
:1012900061746368696E672E0A0D00004932432D40
:1012A000415432344330322074657374207061735A
:1012B000736564210A0D00000A460021016821F4CB
:1012C00080611143016070470A460021016821F4E2
:1012D00000611143016070472DE9F05F04460E463E
:1012E0009346022000F054FD07463148B7FBF0F961
:1012F000B9F13C0F01D34FF03C09D4F804A02AF017
:101300003F0A4AEA090AC4F804A02A4886421ED8BD
:101310002748B7FBF0F000F10108B8F13C0F02D309
:101320003C20206207E0B8F1020F02D802202062C0
:1013300001E0C4F820807000B7FBF0F5042D00D266
:101340000425E069C5F30B010843E0612EE01A486B
:1013500086422BD84FF4967009FB00F04FF47A7157
:10136000B0FBF1F0401C2062BBF1000F08D106EB8E
:101370004600B7FBF0F5E06920F48040E06109E049
:1013800006EBC60000EB0610B7FBF0F5E06940F491
:101390008040E061C5F30B0008B945F00105E06944
:1013A00040F40040E061E0692843E061BDE8F09F5F
:1013B00040420F00A0860100801A0600014608691D
:1013C000C0B27047CAB2026170470000A020014954
:1013D000088070473C000020016841F00101016075
:1013E000704710B540F20152914202D142698269C0
:1013F0000AE000EB9112126801F01F040123A340E0
:101400009A4300EB91131A6010BD10B5024602EB2F
:101410009110006801F01F040123A340184008B197
:10142000012010BD0020FCE710B5FFF739FE00F0E9
:1014300093F841F2150000F04FFD002209490A48D7
:10144000FFF74AFFA02300221146074800F076F874
:101450000548FFF7C1FF4FF480610348FFF72CFFF9
:1014600010BD0000A08601000054004010B500EB44
:101470009112126801F01F040123A3409A4300EB6C
:1014800091131A6010BD10B500EB9112126801F0B3
:101490001F040123A3401A4300EB91131A6010BDEF
:1014A00010B5094A914202D1426982690AE000EB13
:1014B00091521268C1F304440123A3409A4300EB04
:1014C00091531A6010BD000009010105F0B50246F4
:1014D00000230024506800F48065C1F3891010587F
:1014E00001F01F070126BE4000EA060302EB9150FF
:1014F0000068C1F304470126BE4000EA060408481C
:10150000814202D00748814204D113B10DB10123B9
:1015100000E0002314B10BB10120F0BD0020FCE776
:10152000090106050901070512F1020F02D121F098
:10153000010101E041F001010161704730B50C4645
:101540000021016821F0020121430160C3F3090376
:1015500042EA0305856030BD10B54FF4C06000F06D
:10156000ABFA022200211F2000F044FA01220021E0
:10157000202000F03FFA10BD016841F48071016045
:101580007047016841F400710160704710B5274948
:101590002748FFF79BFF18B124492548FFF780FF34
:1015A00024492348FFF792FF18B122492048FFF74A
:1015B00077FF21491E48FFF789FF18B11E491C48D3
:1015C000FFF76EFF1D491A48FFF780FF18B11B494E
:1015D0001748FFF765FF1A491548FFF777FF18B15D
:1015E00017491348FFF75CFF16491148FFF76EFFD4
:1015F00018B114490E48FFF753FF13490C48FFF781
:1016000065FF18B110490A48FFF74AFF4FF484718B
:101610000748FFF72BFF4FF485710548FFF726FFBA
:1016200040F209110248FFF721FF10BD08010A0529
:101630000054004008010F0508010E0508010B05C4
:10164000080109050801080508010C0510B59E48A8
:101650000078002871D19D48007807286AD2DFE819
:1016600000F0041320696937530099499948FFF73E
:101670002DFF40B16FF00102A0219648FFF754FF03
:1016800001209249087056E093499248FFF71EFFE7
:1016900030B191498F48FFF703FF02208B49087052
:1016A00049E08E498B48FFF711FF80B18C480088D4
:1016B000C1B28848FFF786FE00BF40F2025185485C
:1016C000FFF7A3FE0028F8D005208049087032E01B
:1016D00082498048FFF7FAFEA8B182480068017885
:1016E00080480068401C7F4B18607A48FFF76AFE0C
:1016F0007D480088401E7C4908800846008810B953
:1017000006207249087016E07248FFF73AFF4FF45E
:1017100084717048FFF7AAFE4FF485716D48FFF79A
:10172000A5FE40F209116B48FFF7A0FE00206749B3
:10173000087000E000BFC6E0FFE7634800780128BA
:10174000F9D16A480078062873D2DFE800F0031266
:101750001F4359735E495F48FFF7B8FE40B16FF011
:101760000102A0215B48FFF7DFFE01205F490870FE
:10177000A8E059495748FFF7A9FE30B156495548E6
:10178000FFF78EFE0220594908709BE053495148EB
:10179000FFF79CFEE8B156480088C1B24D48FFF7FC
:1017A00011FE00BF40F202514A48FFF72EFE00280A
:1017B000F8D04848FFF7E5FE00BF4648006800F44F
:1017C00000700028F9D14348FFF7D6FE03204749AF
:1017D000087077E03E493F48FFF778FE78B1012274
:1017E000A0213C48FFF7A0FE3F480088032803DA09
:1017F00000213848FFF760FD04203C49087061E093
:1018000035493448FFF762FE90B133493148FFF75C
:1018100047FE35480088012803D033480088022855
:1018200003D100212B48FFF747FD05202F49087001
:1018300048E046E02F492748FFF748FEF0B32A4822
:10184000008800283CDD2848008803280BD100BF11
:1018500040F202511F48FFF7D8FD0028F8D00021C0
:101860001C48FFF729FD1B48FFF7A8FD224909681E
:10187000087021480068401C1F4908601A48008809
:10188000401E1949088008460088B8B90020174949
:1018900008701048FFF775FE4FF484710D48FFF78C
:1018A000E5FD4FF485710B48FFF7E0FD40F20911AB
:1018B0000848FFF7DBFD0020034900E000E0087066
:1018C00000E000BF00BF10BD4E0000203900002026
:1018D000090100050054004009010105090107053F
:1018E0004A0000204000002048000020380000206E
:1018F0004C000020090106054400002010B540F608
:10190000024000F0E9FA4FF40053002201210A4896
:10191000FFF7F0FB4FF40053022200210648FFF7C7
:1019200010FC4FF400500449283108600146024879
:10193000FFF779FB10BD00000008024010B54FF41E
:1019400000510248FFF76FFB10BD00000008024085
:1019500010B54FF400510248FFF763FB10BD0000C3
:101960000008024001F0DEF9FFF7C8FF4FF4E13054
:1019700001F000FAFFF758FDFFF728FD0EA0FEF773
:10198000ABFE00F091FE1D2803D10FA0FEF7A4FED0
:1019900002E013A0FEF7A0FEFFF7F4FB0BE0FFF759
:1019A000D7FF4FF47A70FFF781F9FFF7C7FF4FF4C5
:1019B0007A70FFF77BF9F2E773797374656D2073C2
:1019C00074617274200D0A004361726420696E694B
:1019D000742073756363657373210D0A0000000042
:1019E0004361726420696E6974206661696C656424
:1019F000210D0A002DE9F04103460D46164600244C
:101A00000027A0462A48006800F4E060B0F5E06FC7
:101A100003D100BF4FF0040830E02548006800F40F
:101A2000E060B0F5C06F03D101274FF0030825E057
:101A30001F48006800F4E060B0F5A06F02D10227F3
:101A4000B8461BE01A48006800F4E060B0F5806F0B
:101A500003D103274FF0010810E01548006800F497
:101A6000E060B0F5407F03D104274FF0000805E0A7
:101A70004FF4A06000F020F80227B846C7F1040038
:101A800005FA00F4C8F104010F20C84030400443B7
:101A900024010848C45403F01F0101208840591153
:101AA000890001F1E021C1F80001BDE8F0810000EA
:101AB0000CED00E000E400E002490143024A11603D
:101AC000704700000000FA050CED00E02DE9F04140
:101AD00005461D27002400261A48046801E019481D
:101AE000046804F045000028F9D004F0010030B18A
:101AF0001127012001F020F83846BDE8F08104F0FC
:101B0000040028B11327042001F016F83846F4E742
:101B100000F0A0FFA84202D008273846EDE70A48A7
:101B200001F00AF8002001F045F806460748304069
:101B300010B91D273846E0E7304600F009F807469F
:101B40003846DAE7342C0140FF07C00008E0F9FD11
:101B500001461C2001F000420AB100204EE001F0D5
:101B600080420AB1012049E001F000520AB102208E
:101B700044E001F080520AB103203FE001F000622E
:101B80000AB104203AE001F080620AB1052035E094
:101B900001F080720AB1062030E001F400020AB1BF
:101BA00007202BE001F480020AB1082026E001F4AE
:101BB00000120AB1092021E001F480120AB10A20C2
:101BC0001CE001F400220AB10B2017E001F480327E
:101BD0000AB10C2012E001F400420AB10D200DE020
:101BE00001F480420AB10E2008E001F400520AB16B
:101BF0000F2003E001F0080202B11020704700003E
:101C000070B51D2500241048046801E00E480468E2
:101C100004F045000028F9D004F0010028B1112596
:101C2000012000F089FF284670BD04F0040028B1AF
:101C30001325042000F080FF2846F5E7034800F054
:101C40007BFF2846F0E70000342C0140FF07C0006E
:101C500070B51D2500240B48046801E0094804689C
:101C600004F045000028F9D004F0040028B1132541
:101C7000042000F061FF284670BD034800F05CFFBF
:101C80002846F9E7342C0140FF07C0002DE9F04158
:101C900007460E464FF01D0800250024234805681E
:101CA00001E02248056805F045000028F9D005F05C
:101CB000010038B14FF01108012000F03DFF40460F
:101CC000BDE8F08105F0040030B14FF013080420A6
:101CD00000F032FF4046F3E700F0BCFEB84203D00C
:101CE0004FF008084046EBE7114800F025FF0020C0
:101CF00000F060FF044604F4604018B9200C308006
:101D00004046DDE704F4004010B14FF007080AE058
:101D100004F4804010B14FF0080804E004F40050CF
:101D200008B14FF00B084046CAE70000342C0140D0
:101D3000FF07C00038B51C25002413480090134845
:101D4000046804E0114804680098401E009004F004
:101D5000450010B900980028F4D104F0040008B937
:101D6000009828B91325042000F0E6FE284638BD67
:101D700004F0400028B11D25402000F0DDFE28467B
:101D8000F5E72846F3E70000A0860100342C014067
:101D90002DE9F04F8CB0064600200A903EA090E856
:101DA000004CC068CDE905BECDF810A007900FF239
:101DB000EC0ADAE9000ACDE9020A0FF2E00ADAE9F0
:101DC000000ACDE9000A38480068C0F381000B9092
:101DD0000B9820B1012804D0022828D103E0334910
:101DE00027E0334925E03048001F006800F03F0736
:101DF0002D48001F0068C0F3881C2B48001F006896
:101E0000C0F30140401C4FEA40092748001F00680A
:101E100000F48008B8F5800F01D1254B00E0234B7A
:101E2000B3FBF7F000FB0CF0B0FBF9F101E01F4948
:101E300000BF00BF1C480068C0F3031404A8055D80
:101E400021FA05F218480068C0F3822402A8055D53
:101E500022FA05F0099014480068C0F342341DF8D6
:101E6000045022FA05F0089036B1012E06D0022E59
:101E700006D0032E0AD106E00A9108E00A9206E095
:101E800009980A9003E008980A9000E000BF00BF9C
:101E90000A980CB0BDE8F08F0000000000000000C0
:101EA0000102030406070809083802400024F40070
:101EB00000127A0010B540F6024000F00DF840F62E
:101EC000034000F009F841F20B1000F005F840F66D
:101ED000164000F001F810BD074A02EB9011D1F84E
:101EE000001800F01F0301229A401143024B03EB3C
:101EF0009012C2F80018704700300240074A02EB07
:101F00009011D1F8001800F01F0301229A4091436C
:101F1000024B03EB9012C2F80018704700300240E9
:101F2000074A02EB9011D1F8001800F01F030122BC
:101F30009A401143024B03EB9012C2F8001870470D
:101F40000030024070B504461D252248007805285F
:101F500002D11B25284670BD1E48007838B11D48A7
:101F60000078012803D01B480078022830D1B4F54E
:101F7000805F02D11B252846EDE7B4F5006F12D132
:101F80004FF4802000F028F805461D2D20D10223B3
:101F900000221146104600F039FD204600F028FDD1
:101FA00000F0DAFD14E094B94FF4803000F014F83A
:101FB00005461D2D0CD1022300221146104600F0CB
:101FC00025FD204600F014FD00F0C6FD00E01925B7
:101FD0002846C0E71400002070B505461D240020E7
:101FE00000F0E8FD00F0007010B10624204670BD3E
:101FF00036493748008800F02FFC04461D2C01D0DC
:102000002046F4E7B5F5803F2CD1304840682840A1
:1020100028B32F48008801044022372000F020FD1B
:10202000002000F0E5FD00F037FD3720FFF74EFD02
:1020300004461D2C01D02046D9E74022002106206D
:1020400000F00EFD002000F0D3FD00F025FD06207D
:10205000FFF73CFD04461D2C02D02046C7E71A249A
:102060002046C4E7B5F5802F2CD118484068284099
:1020700028B31748008801044022372000F0F0FC04
:10208000002000F0B5FD00F007FD3720FFF71EFD32
:1020900004461D2C01D02046A9E74022022106203B
:1020A00000F0DEFC002000F0A3FD00F0F5FC0620AF
:1020B000FFF70CFD04461D2C02D0204697E71A249A
:1020C000204694E71924204691E700000C000020E8
:1020D0001600002030B501461D20002209B9192044
:1020E00030BDA84B1B7881F83830A74B1B88A1F86E
:1020F0004430A64B1B681A0E0A70A44B1B68C3F32E
:10210000074213024B80A14B1B88C3F307224B8865
:1021100013434B809D4B1A7813064B609B4B5B68B7
:102120001A0E4B6843EA02434B60984B5B68C3F35B
:1021300007424B6843EA02234B60944B9B88C3F3EE
:1021400007224B6813434B60904B1A790A729B68C5
:102150001A0E4A728D4B9B68C3F307421306CB607D
:102160008A4B1B89C3F30722CB6843EA0243CB6047
:10217000864B1A7ACB681343CB60844BDB681A0E0C
:10218000CB681343CB60814BDB68C3F3074202F09B
:102190000F034FF6FF7404EA03230B827B4B9B89EA
:1021A000C3F307220B8A13430B82784B1A7B530825
:1021B0008B74774B1B681A0E93090B75744B1B6855
:1021C000C3F307424A75724B1B88C3F307228A7513
:1021D0006F4B1A78CA755B681A0E14010C836C4B2E
:1021E0005B68C3F307420B8B43EA12140C8302F0C3
:1021F0000F048C76664B9B88C3F30722D409CC76F8
:10220000C2F380140C77C2F340144C77C2F300146D
:102210008C775C4B1B781BB15A4B1B78012B44D13C
:1022200093071C0D0C625A4B1A790B6A43EA82041D
:102230000C62574B9B681A0E0B6A43EA92140C62AD
:10224000C2F3C20424235C5402F0070425235C5427
:102250004F4B9B68C3F30742540926235C54C2F3D7
:10226000820427235C5493075C0F28235C54484B5B
:102270001B89C3F3072228235B5C43EAD21428237B
:102280005C548C7E0123A3400B640B6A5B1CCB6304
:102290002824645CA41C0125A540CB6B6B43CB6355
:1022A000D1E90F346343CB631DE0364B1B78022B1F
:1022B00019D1374B1A7993069C0A0C62344B9B68F0
:1022C0001A0E0B6A43EA02240C62314B9B68C3F37B
:1022D00007420B6A13430B624FF400730B640B6AE3
:1022E0005B1CDB04CB63C2F3801429235C5493068C
:1022F0005C0E2A235C54264B1A7A2A235B5C43EA41
:10230000D2142A235C5402F07F042B235C54204B0C
:10231000DB681A0ED4092C235C54C2F382042D23EB
:102320005C5493071C0F2E235C54194BDB68C3F3DA
:1023300007422E235B5C43EA92142E235C54C2F3C3
:1023400040142F235C54124B9B89C3F30722D409FA
:1023500030235C54C2F3801431235C54C2F3401424
:1023600032235C54C2F3001433235C54C2F381045F
:1023700081F83440064B1A7B540881F8354000BF81
:10238000AEE60000140000201600002068020020C5
:102390005802002038B51D240120009000F0FEFBFB
:1023A00010B91A24204638BD3D480078032824D0AF
:1023B000C0220021022000F053FB002000F018FC96
:1023C00000F06AFBFFF71CFC04461D2C01D02046E0
:1023D000E9E7002000F0EEFB32490860012000F040
:1023E000E9FB30494860022000F0E4FB2D49886099
:1023F000032000F0DFFB2B49C8602948007858B162
:1024000027480078012807D025480078022803D003
:1024100023480078042812D140220021032000F034
:102420001FFB002000F0E4FB00F036FB69460320B0
:10243000FFF72CFC04461D2C01D02046B3E71848BA
:10244000007803282AD0BDF8000017490880BDF89D
:1024500000000104C022092000F002FB002000F06F
:10246000C7FB00F019FBFFF7CBFB04461D2C01D086
:10247000204698E7002000F09DFB0C4908600120F1
:1024800000F098FB09494860022000F093FB0749DF
:102490008860032000F08EFB0449C860204682E774
:1024A00014000020680200201600002058020020BE
:1024B00070B504461D2521044022072000F0D0FA03
:1024C000002000F095FB00F0E7FA0720FFF7FEFA86
:1024D0000546284670BD000070B504461D2514B998
:1024E0001925284670BD0D480088010440220D20A2
:1024F00000F0B6FA002000F07BFB00F0CDFA0D20D2
:10250000FFF7E4FA05461D2D01D02846EAE7002032
:1025100000F050FB20602846E4E700001600002091
:1025200010B51D24FFF7C6FCFEF780FD00F0F0FAA1
:102530004FF4C060FFF7C0FA002211463120FFF7C8
:1025400059FA00F0F3F804461D2C01D0204610BDC6
:10255000FFF720FF04461D2C01D02046F7E7022399
:1025600000221146104600F051FA002000F040FA17
:1025700000F0F2FA2046EAE710B51D20464908703F
:102580004FF4807000F000FBE0B14448006801287F
:1025900004D100F01BFA4049087002E01D203E49BA
:1025A00008704FF4807000F0E9FA4CF23A3000F015
:1025B000DDFA01203A49086000203A4908603648AF
:1025C000007810BD022000F0DFFA78B1022000F0A0
:1025D000D5FA4CF23A3000F0C9FA002031490860CF
:1025E00012202D49087008460078EAE7082000F01C
:1025F000CBFA78B1082000F0C1FA4CF23A3000F082
:10260000B5FA0020274908601420234908700846BD
:102610000078D6E74FF4007000F0B6FA80B14FF4BE
:10262000007000F0ABFA4CF23A3000F09FFA002054
:102630001C49086017201849087008460078C0E750
:10264000102000F0A1FA78B1102000F097FA4CF2B7
:102650003A3000F08BFA00201249086015200E492C
:10266000087008460078ACE7202000F08DFA78B1B9
:10267000202000F083FA4CF23A3000F077FA002084
:10268000084908601620044908700846007898E751
:102690000148007895E70000240000202000002079
:1026A000280000202C00002010B594B01D2400202C
:1026B0000190FFF735FF04461D2C03D102A8FFF758
:1026C00009FD04461D2C04D1BDF84C00FFF7F0FEB7
:1026D000044601A8FFF700FF0446019800F00070CF
:1026E00020B10CA0FDF7F8FF00BFFEE71D2C08D1BC
:1026F000019800F0007020B94FF40060FFF722FC51
:1027000004461D2C03D1002000F054F90446204655
:1027100014B010BD0D0A20746865206361726420D6
:102720006973206C6F636B65642100002DE9F041D3
:102730001D240027002600254FF0000876230022E4
:102740001146104600F062F9002000F051F900F047
:1027500003FA032000F028FA00F072F90022114673
:10276000104600F07DF9002000F042FA00F094F9E4
:10277000FEF77EFA04461D2C02D02046BDE8F0810B
:1027800040224FF4D571082000F06AF9002000F0D3
:102790002FFA00F081F9FFF7CDFA1D2803D10120AF
:1027A0002B490870870740220021372000F058F994
:1027B000002000F01DFA00F06FF93720FFF786F9CE
:1027C0001D2842D12CE040220021372000F048F99A
:1027D000002000F00DFA00F05FF93720FFF776F9DE
:1027E00004461D2C01D02046C8E71A4847EA0001DC
:1027F0004022292000F034F9002000F0F9F900F01F
:102800004BF9FFF725FA04461D2C01D02046B5E709
:10281000002000F0CFF90646012000EAD6786D1CB2
:10282000B8F1000F03D14FF6FF708542CBD34FF6BE
:10283000FF70854202D3182420469FE706F08040AF
:10284000061E02D0022002490870204696E70000CA
:1028500014000020000010802DE9FC4106460D46C2
:102860001D24002000900190002740220821102004
:1028700000F0F6F8002000F0BBF900F00DF9102090
:10288000FFF724F904461D2C02D02046BDE8FC8148
:1028900031044022372000F0E3F8002000F0A8F9CE
:1028A00000F0FAF83720FFF711F904461D2C01D08B
:1028B0002046EBE7302208214FF0FF3000F0F6F819
:1028C0000221002000F016F900F02CF9402200212E
:1028D000332000F0C5F8002000F08AF900F0DCF8A1
:1028E0003320FFF7F3F804461D2C01D02046CDE736
:1028F00009E04FF4001000F025F920B100F0F4F8E1
:102900004DF827007F1C40F22A6000F01BF90028D8
:10291000EFD0022000F016F928B11224022000F0B6
:102920000BF92046B2E7082000F00CF928B1142476
:10293000082000F001F92046A8E7202000F002F965
:1029400028B11624202000F0F7F820469EE74FF427
:10295000007000F0F7F830B117244FF4007000F069
:10296000EBF8204692E7124800F0E6F801980006DE
:10297000019901F47F4140EA0120019901F47F01AE
:1029800040EA1120019940EA116028600098000691
:10299000009901F47F4140EA0120009901F47F0190
:1029A00040EA1120009940EA1160686020466DE716
:1029B000FF07C00001461D2009B1012902D1024ACA
:1029C000116000E0192070471800002010B51D2488
:1029D000402200210C2000F043F8002000F008F90C
:1029E00000F05AF80C20FFF771F80446204610BD9D
:1029F0000549096821F4C051034A1160114609686C
:102A00000143116070470000042C014030B50446BA
:102A10000020094D2868094D2840FF2B04D940F0BB
:102A20000040A3F58075ABB244EA010515431D4390
:102A30002843014D286030BD042C014000D9FF7FA0
:102A40000348006840F48070014908607047000046
:102A5000042C014001480068C0B27047102C0140AE
:102A600030B5034600200B4C246824F48064094DE3
:102A70002C602C1F246800242D1F2C602C46216004
:102A8000241D206820F0FF0043EA020420432C1D8F
:102A9000206030BD0C2C01400348006840F4806089
:102AA00001490860704700000C2C014010B50D4B27
:102AB0001B6800230B4C2360231D1B6803F07E431F
:102AC000241D2360231D1B6823F0F003241D2360B5
:102AD000044B18601B1D19601B1D1B6813432360EA
:102AE00010BD0000242C0140014800687047000020
:102AF000802C014002460020044B186820F006009C
:102B000042EA01031843014B186070472C2C014026
:102B100010B540F60B10FFF703FA40F60B10FFF765
:102B2000EDF910BD0348006840F00100014908605C
:102B3000704700002C2C01400149086070470000DC
:102B4000382C014001460020024A12680A4002B1B6
:102B500001207047342C01400348006820F4804075
:102B60000149086070470000042C014002490968CF
:102B70008143014A116070473C2C014001490860C3
:102B800070470000382C014001460020024A1268BC
:102B90000A4002B101207047342C0140014800680E
:102BA00070470000002C0140014908607047000098
:102BB000002C01400146002031B1012907D0022933
:102BC00009D003290FD10AE0084A10680CE0074A2F
:102BD000121D106808E0054A0832106804E0034A34
:102BE0000C32106800E000BF00BF7047142C014099
:102BF0000549096821F44071034A116011460968CA
:102C000001431160704700000C2C014008B5002002
:102C10003F49096841F480313D4A116000BF3C4999
:102C2000096801F4003129B90146401C4FF6FF72D2
:102C30009142F4D13649096801F4003131B900BF3D
:102C40003349096801F400310029F9D03049403195
:102C5000096841F080512E4A403211602D490968BF
:102C600041F440412B4A1160294908310968284A3A
:102C7000083211601146096841F4004111601146A3
:102C8000096841F4A05111602349121F1160111FFE
:102C9000096841F08071121F116000BF1C4909686A
:102CA00001F000710029F9D01A49096841F4803116
:102CB000184A116000BF1749496801F480310029A2
:102CC000F9D01449096841F40031124A116000BF7B
:102CD0001049496801F400310029F9D00C49083144
:102CE00009680091009921F003010091009941F0D9
:102CF00002010091064A08320099116000BF0449A0
:102D00000831096801F008010029F8D008BD000069
:102D100000380240007000400854400710B5FFF72B
:102D200075FF10BD10B5124800684FF47A71B0FB02
:102D3000F1F4601EB0F1807F01D301200FE0601E2E
:102D40004FF0E02148610F214FF0FF30FDF7E4FA2A
:102D500000204FF0E021886107200861002008B1C1
:102D600000BFFEE70021481EFDF7D6FA10BD0000A7
:102D70005000002010B504464FF44060FFF7ACF857
:102D800040F60140FFF7A8F841F20410FFF7A4F85D
:102D90004FF4004207212E48FEF714F908220721BC
:102DA0002C48FEF70FF94FF4004301220221284876
:102DB000FEF7A0F94FF40043022200212448FEF759
:102DC000C0F90823012202212248FEF793F90823C3
:102DD000022200211F48FEF7B4F91F4800F0BCF89A
:102DE00021461D4800F03AF800211B4800F0A6F9E2
:102DF0000021194800F0EEF90021174800F0DAF937
:102E00000021154800F05AF90021134800F04CF950
:102E10000021114800F03CF904210F4800F096F918
:102E200008210D4800F0CEF940F205310A4800F0C3
:102E30004FF94FF44171084800F04AF90022114659
:102E40002520FEF7D7FD044800F0F4F810BD00007F
:102E50000000024000040240001001402DE9F0474C
:102E600004460D460027B846B94600263349601A85
:102E70008C4235D00CDC32482044E8B1B0F5806F8C
:102E80001FD0B0F5006F21D0B0F5406F32D122E0F5
:102E9000B0F5806F29D0B0F5184F03D0B0F51C4FB6
:102EA00028D104E00320FEF773FF074623E0032048
:102EB000FEF76EFF07461EE00220FEF769FF074699
:102EC00019E00220FEF764FF074614E00220FEF737
:102ED0005FFF07460FE00220FEF75AFF07460AE0B1
:102EE0000220FEF755FF074605E00220FEF750FFDF
:102EF000074600E000BF00BFE06800F4004070B18A
:102F0000780000EB5500B0FBF5F64FF6F07006EADE
:102F10000008C6F3420948EA0900A0600CE007EB8C
:102F20005500B0FBF5F64FF6F07006EA000806F023
:102F30000F0948EA0900A060BDE8F087007800406A
:102F400000BCFFBF01464868C0F308007047C1F3EA
:102F5000080242607047000010B504463349601A09
:102F60008C424DD00CDC32482044E0B1B0F5806F8B
:102F700022D0B0F5006F31D0B0F5406F52D136E0BD
:102F8000B0F5806F45D0B0F5184F03D0B0F51C4FA9
:102F900048D11AE040F60410FEF7C2FF40F60410D4
:102FA000FEF7ACFF3FE040F61100FEF7B9FF40F638
:102FB0001100FEF7A3FF36E040F61200FEF7B0FF67
:102FC00040F61200FEF79AFF2DE040F60510FEF7DE
:102FD000A7FF40F60510FEF791FF24E040F613002E
:102FE000FEF79EFF40F61300FEF788FF1BE040F659
:102FF0001400FEF795FF40F61400FEF77FFF12E085
:1030000040F61E00FEF78CFF40F61E00FEF776FF2E
:1030100009E040F61F00FEF783FF40F61F00FEF7B1
:103020006DFF00E000BF00BF10BD00000078004051
:1030300000BCFFBFC16841F40051C160704710B5CA
:1030400043F2080291420BD100EB9112126801F099
:103050001F040123A3409A4300EB91131A6007E079
:1030600001F01F0301229A40D24300EB91131A6032
:1030700010BD10B5024602EB9110006801F01F046C
:103080000123A340184008B1012010BD0020FCE737
:1030900050F8C02F22F001020260026801F0010323
:1030A0001A4340F8C0297047426922F40072426115
:1030B000426901F400731A4342617047426922F485
:1030C00080724261426901F480731A434261704721
:1030D00010B500EB9112126801F01F040123A34008
:1030E0001A4300EB91131A6010BD10B500EB91521A
:1030F0001268C1F304440123A3409A4300EB9153A7
:103100001A6010BD70B5024600230024C1F3891077
:10311000105801F01F060125B54000EA050302EB37
:1031200091500068C1F304460125B54000EA05044A
:1031300014B10BB1012070BD0020FCE7C26822F47D
:10314000C062C260C2680A43C26070470A4600217A
:10315000C16821F004011143C160704770B5054694
:103160000C460BE021782846FFF7F1FE00BF062150
:103170002846FFF77EFF0028F9D0641C207800283D
:10318000F0D170BD2DE9F04107460D4616460024EA
:103190000CE0295D3846FFF7DAFE00BF062138460D
:1031A000FFF767FF0028F9D0601C84B2B442F0DB5F
:1031B000BDE8F081026922F44052026102690A43CB
:1031C000026170470A460021C16821F008011143DD
:1031D000C1607047C26822F48052C260C2680A436C
:1031E000C260704704320008000000205800000050
:1031F000F80600085C320008580000206008000053
:1032000008070008000000000000000000000000A7
:1032100000000000000000000000000001000000AD
:1032200000000000000000001D0000000000000081
:10323000000000000000000000000000000000008E
:10324000000000000000000000000000000000007E
:0C32500000000000007A030A00000000EB
:040000050800018965
:00000001FF
