:020000040800F2
:10000000F8470020A101000871040008AD020008B3
:100010006D04000811040008AD080008000000008D
:100020000000000000000000000000007D04000847
:100030005904000800000000F301000881040008D2
:10004000BB010008BB010008BB010008BB010008A0
:10005000BB010008BB010008BB010008BB01000890
:10006000BB010008BB010008BB010008BB01000880
:10007000BB010008BB010008BB010008BB01000870
:10008000BB010008BB010008BB010008BB01000860
:1000900015040008BB010008BB010008BB010008F3
:1000A000BB010008BB010008BB010008BB01000840
:1000B000BB010008BB010008BB0100086504000883
:1000C0005D040008BB010008BB010008BB0100087B
:1000D000BB0100082D07000879070008F907000890
:1000E000BB010008BB010008BB010008BB01000800
:1000F000BB010008BB010008BB010008BB010008F0
:10010000BB01000875040008BB010008BB01000822
:10011000BB010008BB010008BB010008BB010008CF
:10012000BB010008BB010008BB010008BB010008BF
:10013000BB010008BB010008BB010008BB010008AF
:10014000BB010008BB010008BB010008BB0100089F
:10015000BB010008BB010008BB010008BB0100088F
:10016000BB010008BB010008BB010008BB0100087F
:10017000BB010008BB010008BB0100080000000033
:10018000BB010008BB010008DFF810D000F0FEF84A
:100190000048004707040008AFF30080F84700203C
:1001A0000648804706480047FEE7FEE7FEE7FEE711
:1001B000FEE7FEE7FEE7FEE7FEE7FEE7B105000823
:1001C00089010008EFF3108072B6704780F3108841
:1001D0007047444A1368012B04D04FF001031360A9
:1001E000414A1060414A116041484FF0805101601E
:1001F0007047EFF3108272B63A48016851B34FF07E
:10020000000101603848016891B1EFF309811EF0E7
:10021000100F08BF21ED108B21E9F00F4FF0000403
:100220001EF0100F08BF012441F8044D0068016062
:100230002E490968096808C9B1E8F00F002B18BFFA
:10024000B1EC108B81F309884EF0100E002B18BF13
:100250002EF0100E82F310884EF0040E70472349E2
:100260000860EFF3148222F0040282F314881E491E
:100270004FF0000008601B494FF0010008601D4866
:100280001D49D0F8002041EA0201016018484FF0F2
:100290008051016019480068006880F3088861B6E1
:1002A00062B6BFF34F8FBFF36F8F70471EF0040F1E
:1002B0000CBFEFF30880EFF3098020E9F00F40F85E
:1002C00004ED40F804ED1EF0040F0CBF80F3088825
:1002D00080F3098800B502F0D5FC5DF804EB4EF020
:1002E000040E7047080100200001002004010020D6
:1002F00004ED00E020ED00E00000FFFF08ED00E06D
:10030000421E12F8013F002BFBD111F8013B02F80D
:10031000013B002BF9D1704710B5044604E00B787F
:1003200000F8013B03B1491C521EF8D2204610BD13
:10033000421C10F8011B0029FBD1801A704710B530
:10034000002200E0521C835C8C5CA34201D1002B94
:10035000F8D1D8B2E1B2401A10BD034611F8012B12
:1003600000F8012B002AF9D11846704730B5054630
:100370000020034600E05B1C934205D2EC5CC85CA5
:10038000201A01D1002CF6D130BD0000064C074DDB
:1003900006E0E06840F0010394E807009847103455
:1003A000AC42F6D3FFF7F4FEB04F0008D04F000880
:1003B00070B58C1810F8015B15F0070301D110F827
:1003C000013B2A1106D110F8012B03E010F8016B54
:1003D00001F8016B5B1EF9D12B0705D40023521ED7
:1003E0000DD401F8013BFAE710F8013BCB1A921C3F
:1003F00003E013F8015B01F8015B521EF9D5A1423D
:10040000D8D3002070BD10B503F0B3FE002010BD9E
:1004100000BFFEE710B50C4A00210C4800F008FCB4
:100420000948006832280AD10748007A38B90648D6
:10043000807A082803D101200549087002E00120D4
:100440000449087010BD00005801002000640040FD
:100450002E0000202F00002000BFFEE710B501F0A5
:10046000BBF810BD10B501F017F910BD00BFFEE7D5
:1004700000BFFEE710B503F091FE10BD00BFFEE720
:1004800010B502F03BFD05480068401C03490860B8
:1004900003F04EFB02F042FD10BD000020010020E1
:1004A0002DE9FF470FF2E80ADAE900C8DAE9029A13
:1004B000CDE900C8CDE9029ADFF8E4C0DCF800C05D
:1004C000CCF3810727B1012F09D0022F43D10DE0D2
:1004D000DFF8D0C0DFF8D080C8F800C042E0DFF815
:1004E000CCC0DFF8C480C8F800C03BE0DFF8B0C083
:1004F000ACF1040CDCF800C00CF03F01DFF8A0C048
:10050000ACF1040CDCF800C0CCF38812DFF890C02A
:10051000ACF1040CDCF800C0CCF3014C0CF1010C84
:100520004FEA4C04DFF878C0ACF1040CDCF800C0F2
:100530000CF48003B3F5800F01D11C4800E019488A
:10054000B0FBF1FC0CFB02FCBCFBF4FCDFF85880B8
:10055000C8F800C006E0DFF84CC0DFF84C80C8F8EF
:1005600000C000BF00BFDFF838C0DCF800C0CCF32B
:1005700003151DF80560DFF830C0DCF800C02CFA68
:1005800006FCDFF82480C8F800C0BDE8FF87000043
:100590000000000000000000010203040607080933
:1005A000083802400024F4004800002000127A00BD
:1005B0001CB55A48006840F4700058490860584813
:1005C000006840F001005649086000BF54480068C8
:1005D00000F002000028F9D051480830006800F00F
:1005E0000C0008286ED100BF0020019002E00198A5
:1005F000401C019001985028F9D349480830006800
:100600000090009820F0F0000090009840F08000EA
:10061000009043490831009808600020019002E0F2
:100620000198401C019001985028F9D33C480830AB
:1006300000680090009820F0F0000090009840F0D2
:100640009000009036490831009808600020019021
:1006500002E00198401C019001985028F9D33048DD
:10066000083000680090009820F0F000009000989A
:1006700040F0A00000902A4908310098086000204E
:10068000019002E00198401C019001985028F9D394
:100690002348083000680090009820F0F000009097
:1006A000009840F0B00000901D49083100980860A3
:1006B0000020019002E00198401C01900198502810
:1006C000F9D300BF16480830006820F00300144931
:1006D00008310860C82000F07DF911480068114910
:1006E00008400F4908600846006820F48020086030
:1006F00000200B490831086000BF09480830006835
:1007000000200028F9D108480549091D086000208B
:1007100003490C31086003F041FF1CBD88ED00E087
:1007200000380240FFFFF6FE1030002410B50E49DD
:100730000E4804F0E5F9A0B105210C4804F097F942
:1007400078B10A4804F0FCF8094908600120094919
:1007500008700521054804F070F90349034804F0C6
:10076000C2F902F0DBFB10BD0503050000100140DB
:10077000240100202801002010B51949194804F06F
:10078000BFF9C8B10521174804F071F9A0B11548A7
:1007900004F0D6F8C1B2144802680068401C124B3D
:1007A0001860124881540E490E4804F09CF9052146
:1007B0000C4804F042F911E00D490A4804F0A0F990
:1007C00060B100200849086001200A490870084902
:1007D000044804F088F9034804F0B2F810BD0000A2
:1007E00005030500004400402800002030010020DF
:1007F000040304002C00002010B502F07FFB234905
:10080000234804F07DF9E8B10521214804F02FF9CF
:10081000C0B120480088B0F5FF7F0BDC1C4804F015
:100820008FF8C1B21B4802880088401C194B188001
:10083000194881540521164804F0FFF8134914485B
:1008400004F051F91549124804F05AF9D8B10421BD
:100850000F4804F00CF9B0B10D4804F071F80446EB
:100860000D490FA002F06AFB01200E49088000200C
:100870000849088004210C4804F0DFF807490448BF
:1008800004F031F900BF02F049FB10BD050305007B
:10089000004800402C010020F54100200403040022
:1008A000257300002A0100200010014000BFFEE770
:1008B000014609B900207047C8B220B1C8B20E4A3B
:1008C000105C401CF7E701F47F4028B10A48C1F3EF
:1008D0000722805C0930EEE701F47F0028B106486A
:1008E000C1F30742805C1130E5E7034800EB11607B
:1008F00000781930DFE70000804C000802E008C8EB
:10090000121F08C1002AFAD170477047002001E089
:1009100001C1121F002AFBD1704710B502F0FCF88C
:10092000002010BD10B5044602F006F910BD10B548
:10093000044604F11C0002F01BFB002010BD2DE951
:10094000F04389B0064688469146002400E0641CC6
:10095000305D202804D0305D092801D04445F6D30D
:1009600024B94FF0FF3009B0BDE8F083214630468E
:1009700001F0C6FC054615B94FF0FF30F3E7202221
:10098000002101A802F0AFFB01AA4146304601F068
:1009900009FD074617B94FF0FF30E4E701A93846D3
:1009A000A847C9F800000020DDE7000070B5044644
:1009B00006480068FFF77CFF451E054850F83500E3
:1009C000A0F11C062560304670BD0000E400002048
:1009D000F403002008B50021009102E00099491CB1
:1009E000009100EB8001009AB2EB410FF6D308BDF5
:1009F00070B503F037F80446FFF7E4FB05462046E0
:100A000002F004FD04F14C0003F040F9042084F8E6
:100A10003C00204602F0A2FF2846FFF7D7FB02F079
:100A200019FC70BD2DE9FC5F04468B4615461E4639
:100A3000DDE90D9ADDF830800F9F04F11C00406065
:100A4000006000BF24346560A660C4F80C80C4F860
:100A500010902321D4E9030202F045FBD4E9033CC2
:100A600063441A1F0E4BD4E9010102F01FFA206003
:100A700084F819A00020E061276267626061207637
:100A8000E0652066243C00902346064A21460190FA
:100A900004F14C0003F00EF90020BDE8FC9F0000BB
:100AA000F1090008A90A000870B504462546FFF7B9
:100AB00089FB06466FF00100A86305F11C0002F0F7
:100AC0008EFA284602F054FC3046FFF77FFB02F016
:100AD000C1FB70BD2DE9F04704460E461746984607
:100AE000DDF8209084F81190607C20F001006074A3
:100AF0006662A76200202063C4F82C80002506E00F
:100B000004F11C0101EBC50002F035FA6D1C012D4A
:100B1000F6DBBDE8F08770B50546002406E005F178
:100B20001C0101EBC40002F063FA641C012CF6DB2B
:100B300070BD000010B520A002F000FA2148017835
:100B400021A002F0FBF91F48007800F0010010B16D
:100B500023A002F0F3F91B48007800F0020010B166
:100B600022A002F0EBF91748007800F0040010B161
:100B700021A002F0E3F91348007800F0080010B15A
:100B800021A002F0DBF90F48007800F0100010B14E
:100B900020A002F0D3F90B48007800F0800030B1BB
:100BA00008480F3001681DA002F0C8F902E01FA03C
:100BB00002F0C4F910BD0000627573206661756CA7
:100BC000743A0A0029ED00E05343425F4346535212
:100BD0005F424653523A30782530325820000000A8
:100BE000494255534552522000000000505245439F
:100BF0004953455252200000494D505245434953F4
:100C00004552522000000000554E53544B4552525D
:100C10002000000053544B45525220005343422DB4
:100C20003E424641523A253038580A000A00000038
:100C300010B500F5D87303EB01131B6803F0040330
:100C40001372137A3BB900F5D87303EB01131B68D9
:100C50005B0D136006E000F5D87303EB01131B680E
:100C6000DB08536000F5D87303EB01131B6803F036
:100C70000203537200F5DA7303EB01131B681B0ABE
:100C8000D37400F5DA7303EB01131B6803F00F0351
:100C9000937200F5DC7303EB01131B68D37200F54C
:100CA000DC7303EB01131B681C0A147300F5DC737F
:100CB00003EB01131B681C0C547300F5DC7303EB8E
:100CC00001131B681C0E947300F5DE7303EB011314
:100CD0001B68D37300F5DE7303EB01131B681C0A5A
:100CE000147400F5DE7303EB01131B681C0C5474C1
:100CF00000F5DE7303EB01131B681C0E947421B91D
:100D0000C36843F02003C36003E0036943F020039A
:100D1000036110BD10B502A002F010F9002010BD53
:100D20001B5B324A1B5B480070B505460C46022D22
:100D300022D11CA16068FFF702FB10B900F0EAFFA6
:100D400018E01AA16068FFF7FAFA10B901F0D8F8B4
:100D500010E018A16068FFF7F2FA10B900F03EFF4A
:100D600008E015A16068FFF7EAFA10B900F088FE04
:100D700000E002E0002070BD00BF11A002F0DEF82C
:100D800015A002F0DBF817A002F0D8F81CA002F0C2
:100D9000D5F822A002F0D2F827A002F0CFF8002068
:100DA000E9E70000746872656164000074696D654C
:100DB0007200000073656D006D61696C626F780090
:100DC00055736167653A206C697374205B6F70744A
:100DD000696F6E735D0A00005B6F7074696F6E738C
:100DE0005D3A0A0020202020746872656164202D1D
:100DF000206C69737420746872656164730A000002
:100E00002020202074696D6572202D206C69737418
:100E10002074696D6572730A000000002020202094
:100E200073656D202D206C6973742073656D61701E
:100E3000686F7265730A0000202020206D61696C64
:100E4000626F78202D206C697374206D61696C620B
:100E50006F78730A0000000010B51048006890F821
:100E60002900C0F3400020B900200D490870084651
:100E700010BD0C48006838B14FF480720948016811
:100E80000748FFF749FA03E007A10548FFF765FAAD
:100E900007A10348FFF734FA0148E9E718010020E9
:100EA000F40400201C0100206D7368200000000085
:100EB0003E00000010B501F0B5FE10BD05490968FF
:100EC00091F8291060F34101024A126882F8291052
:100ED0007047000018010020024A1060024A1160A9
:100EE0007047000010010020140100207CB500258F
:100EF00017491848FFF7F0FF8021012001F0BEFDDF
:100F0000154908600846006820B914A002F016F8D8
:100F1000681E7CBD0A2015214FF480630022CDE9B4
:100F20000010144914A002F0D2FC044600231A4613
:100F300013A10948006802F093FA0120FFF7BEFFF1
:100F40001CB115B9204602F0B5FD0020E1E7000014
:100F5000B04F0008504F0008180100206E6F206D40
:100F6000656D6F727920666F72207368656C6C0AAC
:100F700000000000890F0008747368656C6C000045
:100F80007368727800000000E848006890F8290053
:100F900020F00100401CE549096881F82900FFF7AD
:100FA0005BFF054601F0CAFFBEE1FFF783FF044681
:100FB000002C00DAB8E11B2C05D10120DB490968BF
:100FC00081F82800B0E1D948006890F8280001288D
:100FD0000DD15B2C05D10220D449096881F8280085
:100FE000A2E10020D149096881F8280045E0CF48F6
:100FF000006890F8280002283FD10020CB490968FA
:1010000081F82800412C00D18EE1422C00D18BE1E7
:10101000442C11D1C5480068B0F87E0058B1C4A076
:1010200001F08CFFC1480068B0F87E00401EBF4947
:101030000968A1F87E0077E1432C1ED1BB48006807
:10104000B0F87E00B9490968B1F87C10884213DA1B
:10105000B6480068B0F87E20B44800682A30815C49
:10106000B4A001F06BFFB1480068B0F87E00401CEE
:10107000AE490968A1F87E0056E10CB1FF2C00D101
:1010800052E1092C1FD1002503E0A9A001F056FF71
:101090006D1CA6480068B0F87E00A842F5DCA348A5
:1010A00000682A3003F09AF9A04800682A30FFF758
:1010B0003FF980B29D490968A1F87C009B49096805
:1010C000A1F87E0030E17F2C01D0082C6ED197482A
:1010D0000068B0F87E0000B926E194480068B0F8D6
:1010E0007C00401E91490968A1F87C008F48006887
:1010F000B0F87E00401E8D490968A1F87E008B483B
:101100000068B0F87C0089490968B1F87E1088420F
:101110003FDD864B1B68B3F87C30844E3668B6F8EA
:101120007E609A1B814B1B68B3F87E305B1C7F4E40
:1011300036682A3699197D4B1B68B3F87E607B4B65
:101140001B682A33F01801F0ADFF002277480068D1
:10115000B0F87C10754800682A3042547348006823
:10116000B0F87E20714800682A30111872A001F092
:10117000E5FE6E480068B0F87E5003E06CA001F018
:10118000DDFE6D1C69480068B0F87C00A842F5DA05
:101190000BE06BA001F0D2FE002164480068B0F8BB
:1011A0007C20624800682A308154BDE00D2C01D0BB
:1011B0000A2C28D15D48006890F8290000F0010051
:1011C00010B160A001F0BAFE58480068B0F87C1079
:1011D000564800682A3001F05DF8FFF73DFE0546ED
:1011E00001F0ACFE51220021504800682A3001F085
:1011F0007AFF00204D490968A1F87C004B49096835
:10120000A1F87E0090E049480068B0F87C005028C2
:1012100004DB002045490968A1F87C0043480068C8
:10122000B0F87E0041490968B1F87C10884245DA7F
:101230003E4B1B68B3F87C303C4E3668B6F87E6097
:101240009A1B3A4B1B68B3F87E60384B1B682A33F5
:10125000F118364B1B68B3F87E305B1C334E366892
:101260002A36981901F01EFF30480068B0F87E2039
:101270002E4800682A3084542C48006890F82900D1
:1012800000F0010050B129480068B0F87E202748DE
:1012900000682A3011182CA001F050FE2348006885
:1012A000B0F87E5003E022A001F048FE6D1C1F48FC
:1012B0000068B0F87C00A842F5DC12E01B4800682A
:1012C000B0F87C20194800682A3084541748006818
:1012D00090F8290000F0010018B1214615A001F096
:1012E0002DFE002411480068B0F87C00401C0F4916
:1012F0000968A1F87C000D480068B0F87E00401C29
:101300000A490968A1F87E0008480068B0F87C0026
:10131000502808DB002005490968A1F87C00034932
:101320000968A1F87E0000BF3FE600001801002018
:101330000800000025630000082573202008000035
:10134000082008000A00000025730000014800681A
:101350007047000020010020F0B503461C6A5D6A5A
:1013600000200DE00126864016403EB187000F2682
:10137000BE40B443860001FA06F63443461CB0B2C0
:101380000828EFD3082011E00126864016405EB100
:10139000A0F10806B7000F26BE40B543A0F108062D
:1013A000B60001FA06F63543461CB0B21028EBD35E
:1013B0001C625D62F0BD8162704781617047F0B56B
:1013C00004460D4616462168E268002019E0012710
:1013D00087401F409FB14FEA400C032707FA0CF7E4
:1013E000B943470005FA07F739434FEA400C032792
:1013F00007FA0CF7BA43470006FA07F73A43471CC7
:10140000B8B21028E3D32160E260F0BDF0B50C461D
:101410001546012C03D146681E43466002E046682B
:101420009E434660826800210DE001268E401E40EA
:101430003EB14F000326BE40B2434E0005FA06F609
:1014400032434E1CB1B21029EFD38260F0BD0000D0
:1014500010B51448006800F0020010B112A001F0AD
:101460006DFD1048006800F0804088B10D48C01E36
:10147000007808B1FFF75EFB0A48001F007808B14A
:1014800000F052FE0748801E008808B103F092F871
:101490000448006800F0004010B109A001F04EFDC2
:1014A00010BD00002CED00E06661696C656420767B
:1014B0006563746F722066657463680A00000000DB
:1014C0006465627567206576656E740A00000000C9
:1014D0000A460021016821F48061114301607047D0
:1014E00001460869C0B27047CAB20261704710B5C0
:1014F000024602EB9110006801F01F040123A34093
:10150000184008B1012010BD0020FCE710B500EB29
:101510009112126801F01F040123A3409A4300EBCB
:1015200091131A6010BD000010B5094A914202D112
:10153000426982690AE000EB91521268C1F30444E7
:101540000123A3409A4300EB91531A6010BD0000A1
:1015500009010105F0B5024600230024506800F49B
:101560008065C1F38910105801F01F070126BE40A5
:1015700000EA060302EB91500068C1F3044701261C
:10158000BE4000EA06040848814202D00748814272
:1015900004D113B10DB1012300E0002314B10BB14C
:1015A0000120F0BD0020FCE709010605090107053F
:1015B00012F1020F02D121F0010101E041F001011D
:1015C00001617047016841F48071016070470168F2
:1015D00041F400710160704710B527492748FFF7B3
:1015E000B9FF18B124492548FFF79EFF2449234835
:1015F000FFF7B0FF18B122492048FFF795FF2149B6
:101600001E48FFF7A7FF18B11E491C48FFF78CFFC3
:101610001D491A48FFF79EFF18B11B491748FFF7ED
:1016200083FF1A491548FFF795FF18B1174913486A
:10163000FFF77AFF16491148FFF78CFF18B11449DC
:101640000E48FFF771FF13490C48FFF783FF18B1ED
:1016500010490A48FFF768FF4FF484710748FFF705
:1016600055FF4FF485710548FFF750FF40F209110F
:101670000248FFF74BFF10BD08010A050054004067
:1016800008010F0508010E0508010B0508010905F1
:101690000801080508010C0510B59E4800780028CF
:1016A00071D19D48007807286AD2DFE800F0041362
:1016B00020696937530099499948FFF74BFF40B1BA
:1016C0006FF00102A0219648FFF772FF01209249B6
:1016D000087056E093499248FFF73CFF30B19149BA
:1016E0008F48FFF721FF02208B49087049E08E499F
:1016F0008B48FFF72FFF80B18C480088C1B2884823
:10170000FFF7F2FE00BF40F202518548FFF7EFFEFF
:101710000028F8D005208049087032E082498048CE
:10172000FFF718FFA8B18248006801788048006878
:10173000401C7F4B18607A48FFF7D6FE7D48008832
:10174000401E7C4908800846008810B9062072496E
:10175000087016E07248FFF73AFF4FF48471704842
:10176000FFF7D4FE4FF485716D48FFF7CFFE40F2CE
:1017700009116B48FFF7CAFE00206749087000E0B6
:1017800000BFC6E0FFE7634800780128F9D16A4846
:101790000078062873D2DFE800F003121F43597364
:1017A0005E495F48FFF7D6FE40B16FF00102A0210D
:1017B0005B48FFF7FDFE01205F490870A8E059492A
:1017C0005748FFF7C7FE30B156495548FFF7ACFE02
:1017D0000220594908709BE053495148FFF7BAFE6F
:1017E000E8B156480088C1B24D48FFF77DFE00BF02
:1017F00040F202514A48FFF77AFE0028F8D04848E4
:10180000FFF7E5FE00BF4648006800F400700028BE
:10181000F9D14348FFF7D6FE03204749087077E027
:101820003E493F48FFF796FE78B10122A0213C488F
:10183000FFF7BEFE3F480088032803DA002138483E
:10184000FFF746FE04203C49087061E03549344802
:10185000FFF780FE90B133493148FFF765FE354808
:101860000088012803D033480088022803D10021D2
:101870002B48FFF72DFE05202F49087048E046E071
:101880002F492748FFF766FEF0B32A480088002852
:101890003CDD2848008803280BD100BF40F20251EC
:1018A0001F48FFF724FE0028F8D000211C48FFF74E
:1018B0000FFE1B48FFF714FE2249096808702148F3
:1018C0000068401C1F4908601A480088401E1949DA
:1018D000088008460088B8B90020174908701048E9
:1018E000FFF775FE4FF484710D48FFF70FFE4FF4BC
:1018F00085710B48FFF70AFE40F209110848FFF70F
:1019000005FE0020034900E000E0087000E000BF91
:1019100000BF10BD46000020310000200901000575
:10192000005400400901010509010705420000209B
:10193000380000204000002030000020440000203B
:10194000090106053C00002010B540F6024001F0F8
:1019500047F84FF40053002201210A48FFF72FFDFA
:101960004FF40053022200210648FFF74FFD4FF4C9
:10197000005004492831086001460248FFF71DFD68
:1019800010BD00000008024010B54FF4005102489D
:10199000FFF713FD10BD00000008024010B54FF422
:1019A00000510248FFF707FD10BD0000000802408B
:1019B0000446FFF7C9FF09E0FFF7F0FF206801F0D8
:1019C000DBFFFFF7E1FF206801F0D6FFF4E72DE928
:1019D000F04704460D4616461F46284601F0F2FB26
:1019E000814609F10408C4F8008025726660E7604A
:1019F00000202061BDE8F0872DE9F84F07460C462E
:101A00004FF0000A00202061E06808B1207A10B988
:101A10000020BDE8F88FD4F800801FB945464FF08C
:101A2000010A00E03D46FEF7CDFB0090BAF1000F41
:101A30000ED1A5F1140B9BF8100020F08000217A44
:101A4000884204D00098FEF7C1FB0020E1E700BF08
:101A50000026D4F804900BE02D68454501D10025FF
:101A600007E0761C49F8045BE068B04200D100E072
:101A7000F2E700BF0098FEF7A9FB26612846C8E7F9
:101A80002DE9F04F91B000270FF2D409082304AAE2
:101A900005210CA8FFF79BFF4FF010084A4641466E
:101AA00031A001F04BFA404600F060FD37A001F094
:101AB00045FA00BF0CA93846FFF79EFF07460025F0
:101AC00045E004A850F82500A0F11406FEF77AFBC3
:101AD0008346307C20F080009DF83810884203D087
:101AE0005846FEF773FB31E05846FEF76FFB34466D
:101AF00004F11C0001F058FAB8B904F11C0001F01F
:101B00005BFA8246208D618D23461022CDE9010AC1
:101B10000091414624A001F011FA04F11C0002F0EA
:101B200075FC27A001F00AFA0FE004F11C0001F097
:101B300043FA8246208D618D23461022CDE9010AA9
:101B4000009141461FA001F0F9F900BF6D1C1098EB
:101B5000A842B6DC002FADD1002011B0BDE8F08F57
:101B60006D61696C626F7800252D2A2E7320656E79
:101B70007472792073697A652073757370656E6409
:101B8000207468726561640A00000000202D2D2D0C
:101B90002D20202D2D2D2D202D2D2D2D2D2D2D2D9C
:101BA0002D2D2D2D2D2D0A00252D2A2E2A73202591
:101BB0003034642020253034642025643A0000004D
:101BC0000A000000252D2A2E2A7320253034642097
:101BD00020253034642025640A0000002DE9F04FF0
:101BE0008FB000270FF2CC09082302AA02210AA80D
:101BF000FFF7EDFE4FF010084A46414630A001F0D5
:101C00009DF9404600F0B2FC34A001F097F900BF06
:101C10000AA93846FFF7F0FE0746002541E002A872
:101C200050F82500A0F11406FEF7CCFA8346307C6C
:101C300020F080009DF83010884203D05846FEF70F
:101C4000C5FA2DE05846FEF7C1FA344604F11C00EF
:101C500001F0AAF9A8B904F11C0001F0ADF982461F
:101C6000A08C234610224146CDE9000A21A001F0B4
:101C700065F904F11C0002F0C9FB17A001F05EF940
:101C80000DE004F11C0001F097F98246A08C234678
:101C900010224146CDE9000A1AA001F04FF900BF19
:101CA0006D1C0E98A842BADC002FB1D100200FB0F5
:101CB000BDE8F08F73656D6170686F72650000003C
:101CC000252D2A2E73207620202073757370656E63
:101CD00064207468726561640A000000202D2D2D57
:101CE000202D2D2D2D2D2D2D2D2D2D2D2D2D2D0A54
:101CF00000000000252D2A2E2A7320253033642071
:101D000025643A00252D2A2E2A732025303364209D
:101D100025640A002DE9F04FB5B04FF000090FF22D
:101D2000241B082327AA01212FA8FFF750FE4FF0FC
:101D3000100A5A465146454801F000F9504600F055
:101D400015FC43A001F0FAF800BF2FA94846FFF7A1
:101D500053FE81464FF0000869E027A850F828009C
:101D6000A0F11405FEF72EFA3490287C20F08000B4
:101D70009DF8C410884203D03498FEF727FA54E047
:101D80008822294605A801F04FF93498FEF71EFA7B
:101D90002C4694F83D0023461022514600903CA06A
:101DA00001F0CCF894F83C0000F00706012E03D1B6
:101DB0003AA001F0C3F815E0022E03D13AA001F0D9
:101DC000BDF80FE01EB93BA001F0B8F80AE0042E00
:101DD00003D13BA001F0B2F804E0032E02D13BA0F6
:101DE00001F0ACF8276B00E07F1C38782328FBD08B
:101DF000A06B01F0E1FC0490D4E90C10791A401AB0
:101E000064214843616BB0FBF1F003900498A16C2E
:101E1000CDE90010636A206BC01A636BC1181A46C3
:101E20002DA0039B01F08AF800BF08F10108339848
:101E3000404592DCB9F1000F87D1002035B0BDE8F4
:101E4000F08F00007468726561640000FC4D00084A
:101E5000202D2D2D20202D2D2D2D2D2D2D202D2DE6
:101E60002D2D2D2D2D2D2D2D202D2D2D2D2D2D2DAF
:101E70002D2D2D20202D2D2D2D2D2D20202D2D2DC6
:101E80002D2D2D2D2D2D2D202D2D2D0A0000000066
:101E9000252D2A2E2A7320253364200020726561A7
:101EA00064792020000000002073757370656E64F3
:101EB0000000000020696E697420202000000000EE
:101EC00020636C6F73652020000000002072756E27
:101ED0006E696E6700000000203078253038782069
:101EE0003078253038782020202025303264252590
:101EF0002020203078253038782025730A00000013
:101F00002DE9F04790B000270FF2C809082303AA73
:101F10000A210BA8FFF75BFD4FF010084A46414627
:101F20002EA001F00BF8404600F020FB38A001F095
:101F300005F800BF0BA93846FFF75EFD07460026EF
:101F400038E003A850F82600A0F11405FEF73AF98E
:101F50008246287C20F080009DF83410884203D00F
:101F60005046FEF733F924E05046FEF72FF92C4691
:101F7000D4E90B0123461022CDE90001414630A0EF
:101F800000F0DCFF607C00F0010018B132A000F02E
:101F9000D5FF02E034A000F0D1FF607C00F0020029
:101FA00018B135A000F0CAFF02E036A000F0C6FF6D
:101FB00000BF761C0F98B042C3DC002FBAD101F0ED
:101FC000B1FD0446214632A000F0B8FF002010B059
:101FD000BDE8F08774696D6572000000252D2A2E1A
:101FE000732020706572696F6469632020207469B2
:101FF0006D656F757420202020616374697661744B
:10200000656420202020206D6F64650A00000000B8
:10201000202D2D2D2D2D2D2D2D2D2D202D2D2D2D0A
:102020002D2D2D2D2D2D202D2D2D2D2D2D2D2D2DED
:102030002D2D202D2D2D2D2D2D2D2D2D0A00000087
:10204000252D2A2E2A7320307825303878203078B4
:10205000253038782000000061637469766174650A
:10206000642020200000000064656163746976616B
:102070007465642000000000706572696F646963B4
:102080000A0000006F6E652073686F740A0000001C
:1020900063757272656E74207469636B3A3078256B
:1020A0003038780A000000001CB50A200121802386
:1020B000104ACDE90010104910A001F008FC0546B7
:1020C00015B1284601F0F6FC0A2000214FF40073F8
:1020D0000A46CDE900100C490CA001F0F8FB0446BB
:1020E00014B1204601F0E6FC02E00A2001F044FCB5
:1020F000FBE7000000000020B11900086C65645F78
:102100007468726561640000ED4B00087769666968
:102110005F7468726561640010B5044600F0CEFC1F
:10212000FFF7C2FF10BD000010B51CA000F006FFB5
:102130001F4801781FA000F001FF1D48007800F043
:10214000010010B121A000F0F9FE1948007800F05C
:10215000020010B120A000F0F1FE1548007800F058
:10216000080010B11FA000F0E9FE1148007800F04F
:10217000100010B11EA000F0E1FE0D48007800F044
:10218000800030B10A480C3001681CA000F0D6FE77
:1021900002E01EA000F0D2FE10BD00006D656D20B3
:1021A0006D616E616765206661756C743A0A000046
:1021B00028ED00E05343425F434653525F4D465380
:1021C000523A3078253032582000000049414343CC
:1021D00056494F4C200000004441434356494F4C60
:1021E000200000004D554E53544B455252200000E4
:1021F0004D53544B45525220000000005343422D92
:102200003E4D4D41523A253038580A000A00000030
:102210002DE9F04781460026002799F8000028B9EB
:102220000021084600F08CF8BDE8F08716480568E4
:102230001EE0D5F800804846FEF77AF882465246FE
:1022400041464846FEF792F888B926B947463846CF
:10225000FEF76EF806464146384602F006F9044697
:10226000B44200DA2646414608A000F067FE0C356D
:10227000074800688542DCD327B1324639464846D4
:1022800001F0B3FA00BFCFE71001002025730A0068
:102290001401002038B504460D4601E0641C6D1E93
:1022A0002DB120782028F9D020780928F6D00DB952
:1022B000002038BD6A4629462046FEF740FB08B993
:1022C0000098F6E7204600E0401C0178202902D063
:1022D00001780029F8D100210170214602A000F008
:1022E0002DFE4FF0FF30E4E725733A20636F6D6DEC
:1022F000616E64206E6F7420666F756E642E0A00C6
:102300002DE9F04106460D4600270B4804680BE016
:102310002A4631462068FEF729F820B92068405D3A
:1023200008B9A76804E00C34044800688442EFD37D
:1023300000BF3846BDE8F0811001002014010020E4
:1023400070B505460E460AA000F0F8FD0F48046877
:1023500005E00FA0D4E9001200F0F0FD0C340F48A6
:1023600000688442F5D30EA000F0E8FD002070BDA7
:1023700052542D546872656164207368656C6C20DA
:10238000636F6D6D616E64733A0A00001001002086
:10239000252D313673202D2025730A0014010020CD
:1023A0000A0000002DE9F04782460E46904654464A
:1023B0000025002755E003E000202070641C6D1C00
:1023C0002078202802D02078092801D1B542F3D303
:1023D000082F12D326A000F0B1FD4FF0000906E04F
:1023E00058F829102AA000F0A9FD09F10109B94502
:1023F000F6D326A000F0A2FD35E0B54200D332E0CE
:10240000207822281CD1641C6D1C48F827407F1CB2
:1024100009E020785C2804D16078222801D1641C6E
:102420006D1C641C6D1C2078222801D0B542F0D3AD
:10243000B54200D317E000202070641C6D1C10E032
:1024400048F827407F1C01E0641C6D1C2078202880
:1024500004D02078092801D0B542F5D3B54200D385
:1024600001E0B542A7D300BF3846BDE8F0870000C1
:10247000546F6F206D616E79206172677320212027
:102480005765206F6E6C79205573653A0A0000001D
:10249000257320002DE9F04103460D461646002421
:1024A0000027A0462A48006800F4E060B0F5E06F1D
:1024B00003D100BF4FF0040830E02548006800F465
:1024C000E060B0F5C06F03D101274FF0030825E0AD
:1024D0001F48006800F4E060B0F5A06F02D1022749
:1024E000B8461BE01A48006800F4E060B0F5806F61
:1024F00003D103274FF0010810E01548006800F4ED
:10250000E060B0F5407F03D104274FF0000805E0FC
:102510004FF4A06000F020F80227B846C7F104008D
:1025200005FA00F4C8F104010F20C840304004430C
:1025300024010848C45403F01F01012088405911A8
:10254000890001F1E021C1F80001BDE8F08100003F
:102550000CED00E000E400E002490143024A116092
:10256000704700000000FA050CED00E010B50446CD
:1025700002E004A000F0E2FC201EA4F10104F8D166
:1025800010BD00002D00000070B5046B4D6862198D
:10259000914214D0147804F0010484B9446B94423D
:1025A0000DD0846B944200D1816300241460546880
:1025B0004C60046B0C1B056B56683544AC60046BB7
:1025C0008D6863198B4211D01C7804F001046CB93A
:1025D000846B8C4200D1836300240C604C685C6087
:1025E000046B1C1B056B4E683544AC6070BD00006D
:1025F0002DE9F04F86B00D469C46DDE9106401964A
:102600000F9B04F04008B8F1000F02D0DFF8708192
:1026100001E0DFF87081CDF8008004F01008B8F117
:10262000000F01D024F0010404F00108B8F1000FFC
:1026300002D04FF0300801E04FF02008C2460027DA
:1026400004F00208B8F1000F11D0002A02DA2D2799
:1026500052420CE004F00408B8F1000F01D02B271F
:1026600005E004F00808B8F1000F00D02027002191
:1026700042B94FF0300B8846491C0DF1080909F8A2
:1026800008B01DE01AE0E146B9F10A0F08D14FF099
:102690000A0BB2FBFBFE0BFB1E28B2FBFBF202E0B7
:1026A00002F00F08120900BFDDF8009019F808B019
:1026B0008846491C0DF1080909F808B0002AE2D142
:1026C000B14200DD0E469B1B04F01108B8F1000F6B
:1026D00010D117B1002B00DD5B1E06E0A84203D22B
:1026E0004FF0200880F80080401CB3F10008A3F1EF
:1026F0000103F3DC27B1A84200D207705B1E401C27
:1027000004F01008B8F1000F0AD104E0A84201D289
:1027100080F800A0401CB3F10008A3F10103F5DC30
:1027200006E0A84203D24FF0300880F80080401C39
:10273000B046761E8845F4DC08E0A84205D20DF1CB
:10274000080818F8018080F80080401CB1F10008EA
:10275000A1F1010104DDDDF80480B8F1000FECD136
:1027600006E0A84203D24FF0200880F80080401C09
:10277000B3F10008A3F10103F3DC06B0BDE8F08F6C
:10278000914D0008804D00082DE9F04105461D27B8
:10279000002400261A48046801E01948046804F07F
:1027A00045000028F9D004F0010030B111270120C4
:1027B00001F0CAFD3846BDE8F08104F0040028B1FC
:1027C0001327042001F0C0FD3846F4E701F090FD26
:1027D000A84202D008273846EDE70A4801F0B4FDC8
:1027E000002001F0CFFD06460748304010B91D27F4
:1027F0003846E0E7304600F009F807463846DAE7A1
:10280000342C0140FF07C00008E0F9FD01461C2000
:1028100001F000420AB100204EE001F080420AB10E
:10282000012049E001F000520AB1022044E001F029
:1028300080520AB103203FE001F000620AB1042097
:102840003AE001F080620AB1052035E001F08072C3
:102850000AB1062030E001F400020AB107202BE0A3
:1028600001F480020AB1082026E001F400120AB146
:10287000092021E001F480120AB10A201CE001F4D1
:1028800000220AB10B2017E001F480320AB10C20BB
:1028900012E001F400420AB10D200DE001F4804283
:1028A0000AB10E2008E001F400520AB10F2003E043
:1028B00001F0080202B11020704700002DE9F04F2E
:1028C0008CB0064600200A903EA090E8004CC068FC
:1028D000CDE905BECDF810A007900FF2EC0ADAE9B9
:1028E000000ACDE9020A0FF2E00ADAE9000ACDE9AE
:1028F000000A38480068C0F381000B900B9820B1A3
:10290000012804D0022828D103E0334927E03349C5
:1029100025E03048001F006800F03F072D48001FE9
:102920000068C0F3881C2B48001F0068C0F30140FA
:10293000401C4FEA40092748001F006800F4800847
:10294000B8F5800F01D1254B00E0234BB3FBF7F026
:1029500000FB0CF0B0FBF9F101E01F4900BF00BF24
:102960001C480068C0F3031404A8055D21FA05F2B1
:1029700018480068C0F3822402A8055D22FA05F019
:10298000099014480068C0F342341DF8045022FA3C
:1029900005F0089036B1012E06D0022E06D0032E87
:1029A0000AD106E00A9108E00A9206E009980A9026
:1029B00003E008980A9000E000BF00BF0A980CB03E
:1029C000BDE8F08F000000000000000001020304D9
:1029D00006070809083802400024F40000127A00B3
:1029E000074A02EB9011D1F8001800F01F030122F2
:1029F0009A401143024B03EB9012C2F80018704743
:102A000000300240074A02EB9011D1F8001800F0A4
:102A10001F0301229A409143024B03EB9012C2F82C
:102A20000018704700300240074A02EB9011D1F8BD
:102A3000001800F01F0301229A401143024B03EBE0
:102A40009012C2F800187047003002401CB51420E4
:102A50000A214FF480730022CDE90010044905A03B
:102A600000F035FF0446204601F024F81CBD0000AC
:102A7000192100086D61696E0000000070B5044600
:102A80000D4604FB05F000F0BDFA06462EB104FB2E
:102A900005F20021304600F026FB304670BD0000F4
:102AA00010B5044C02E020688047241D024884428F
:102AB000F9D310BD3C4F0008444F000810B5044C3A
:102AC00002E020688047241D02488442F9D310BDEB
:102AD000444F00084C4F000870B51AE000F020FF8A
:102AE000044604B916E0D4F88060204600F0A9FB43
:102AF0000546012D02D1204600F055FB0EB12046BF
:102B0000B0472DB9206B00F039F8204600F039FBB2
:102B100000BFE3E700BF70BD10B5FDF753FB0446EF
:102B200004480088401C00B2024908802046FDF796
:102B30004DFB10BDE800002010B5FDF743FB044637
:102B40000C480088401E00B20A4908800846B0F9C7
:102B5000000000280ADC002008802046FDF736FB34
:102B60000548006828B100F075FB02E02046FDF73B
:102B70002DFB10BDE8000020EC00002070B50446DD
:102B800004B970BDFDF7C9FE0546204600F06CFD96
:102B90002846FDF7C7FE00BFF3E700000048704776
:102BA000F505002000487047F541002070B51A482F
:102BB00000684FF47A72B0FBF2F1481EB0F1807FEA
:102BC00000D31BE0481E4FF0E022506150170F2247
:102BD000002807DA13071D0E104B00F00F04241F06
:102BE0001D5503E013071C0E0D4B1C5400BF0020A5
:102BF0004FF0E02290610720106100BFFDF750FC0C
:102C0000FFF74EFFFFF7CEFF0446FFF7C7FF05466D
:102C1000214600F005FE70BD4800002018ED00E0E0
:102C200000E400E005480078012805D100200349B0
:102C30000870034800787047FF20FCE72801002057
:102C400024010020F8B50546002400260D20009040
:102C5000284600F0C1FD064600BF0DE0285D0A28A9
:102C600004D101226946064801F08AFF2919012290
:102C7000034801F085FF641CB442EFD3F8BD0000A7
:102C8000001001402DE9F041054605F128062C1DF4
:102C90003248006840B130463049096888470746E5
:102CA0000FB9BDE8F08100BF2DA0216C00F046F9FE
:102CB0002FA0616A00F042F931A0A16A00F03EF94C
:102CC00033A0E16A00F03AF935A0216B00F036F943
:102CD00037A0616800F032F939A0A16800F02EF940
:102CE0003BA0E16800F02AF93DA0216900F026F937
:102CF0003FA0616900F022F941A0A16900F01EF92E
:102D000043A0E16900F01AF945A0216A00F016F924
:102D100047A0616B00F012F949A0A16B00F00EF919
:102D20004BA0E16B00F00AF9287800F0040038B1FC
:102D300000F098FE0746394649A000F0FFF802E08F
:102D40004FA000F0FBF8287800F0100010B953A055
:102D500000F0F4F8FEF77CFB00BFFEE70C0100205A
:102D60007073723A203078253038780A00000000FD
:102D70007230303A203078253038780A0000000070
:102D80007230313A203078253038780A000000005F
:102D90007230323A203078253038780A000000004E
:102DA0007230333A203078253038780A000000003D
:102DB0007230343A203078253038780A000000002C
:102DC0007230353A203078253038780A000000001B
:102DD0007230363A203078253038780A000000000A
:102DE0007230373A203078253038780A00000000F9
:102DF0007230383A203078253038780A00000000E8
:102E00007230393A203078253038780A00000000D6
:102E10007231303A203078253038780A00000000CE
:102E20007231313A203078253038780A00000000BD
:102E30007231323A203078253038780A00000000AC
:102E4000206C723A203078253038780A0000000073
:102E50002070633A203078253038780A000000006E
:102E600068617264206661756C74206F6E2074688E
:102E7000726561643A2025730D0A0D0A0000000096
:102E800068617264206661756C74206F6E20686181
:102E90006E646C65720D0A0D0A00000046505520E4
:102EA000616374697665210D0A000000F0B504467F
:102EB0000D461646301D20F007004438014600221A
:102EC00003E00D4F41F82270521C112AF9D34D62D4
:102ED0004FF0000CC1F828C0C1F82CC0C1F830C0B8
:102EE000C1F834C08B63CC634FF0807CC1F840C024
:102EF00000270F60F0BD0000EFBEADDE10B5FDF79E
:102F000061F9044604480078401C034908702046D3
:102F1000FDF75CF910BD00005800002010B5FDF76A
:102F200051F9044604480078401E034908702046C1
:102F3000FDF74CF910BD0000580000200FB438B563
:102F400005A80090FF210948009B049A00F05EFF4D
:102F50000446FF2C00D9FF240448FFF773FE00202D
:102F60000090204638BC5DF814FB0000F4020020FD
:102F700040600060704740600060704702685160C8
:102F800002680A6001604860704702685160026828
:102F90000A6001604860704701460868884201D1B4
:102FA000012070470020FCE701460868884201D1F3
:102FB000012070470020FCE7014600200A4601E09E
:102FC0001268401C13688B42FAD17047D0E9002187
:102FD0005160D0E900121160406000607047D0E994
:102FE00000215160D0E9001211604060006070471C
:102FF000D0E900215160D0E900121160406000600A
:103000007047000070B50446FDF787FC0646214670
:103010000448006800F09EFA05463046FDF782FC41
:10302000284670BD900000202DE9F0410F4616465D
:1030300004463D463346102B28D305F0030C04F01C
:1030400003084CEA080CBCF1000F1FD121462A46A8
:1030500010E052F804CB41F804CB52F804CB41F80D
:1030600004CB52F804CB41F804CB52F804CB41F81E
:1030700004CB103B102BECD204E052F804CB41F807
:1030800004CB1B1F042BF8D20C46154603E015F8A1
:1030900001CB04F801CBB3F1000CA3F10103F6D18D
:1030A000BDE8F08170B50C46014623468B4210D234
:1030B0009D188D420DD91144134405E05D1E2B4629
:1030C0002E784D1E29462E70151EA2F10102F5D153
:1030D00008E003E013F8015B01F8015B151EA2F1A3
:1030E0000102F7D170BDF0B50C460546E6B2042AE0
:1030F00015D300F0030797B9014646EA062343EAD1
:10310000034304E008C108C108C108C1103A102AED
:10311000F8D201E008C1121F042AFBD20D4601E0DB
:1031200005F8016B171EA2F10102F9D1F0BD2DE9DE
:10313000F04106460F46304600F044F80546E86880
:10314000FFF760FF044614B90020BDE8F0810021BC
:103150002046EA68FFF7C7FF26740020607410223B
:103160003946204600F041FBFDF72CF8804604F17B
:103170001401281DFFF702FF4046FDF727F82046FF
:10318000E3E770B5044600202074FDF71BF8054600
:1031900004F11400FFF71AFF2846FDF717F8204640
:1031A000FFF7ECFC70BD70B5044600202074FDF7FD
:1031B00009F8054604F11400FFF708FF2846FDF75B
:1031C00005F870BD024600210AE0074800EB011037
:1031D0000078904203D1044800EB01107047491C6D
:1031E0000529F2DB0020F9E7940000202DE9F047E3
:1031F00004460D46904600262846FFF7E3FF0746A3
:10320000FFF78AFC7E6802E0A6F114003668381DDC
:103210008642F9D1FFF790FC45F08000207410221F
:103220004146204600F0E1FAFCF7CCFF814604F16C
:103230001401381DFFF7A2FE4846FCF7C7FFBDE8A2
:10324000F0870146087C00F0800008B1012070473B
:103250000020FCE7F8B5FCF7B5FF06463F480088BC
:10326000002875D13E480068002870D000276846C5
:10327000FDF79CFB04463B48006890F83C0000F0DA
:103280000700032825D13748006890F83D000099D1
:10329000884202D23348046811E03248006890F84E
:1032A0003D000099884209D12E48006890F83C0002
:1032B00000F0080010B92B48046800E001272948F5
:1032C000006890F83C0020F008002649096881F861
:1032D0003C0024480068844228D0234900980870A4
:1032E00020480568046017B1284600F041F82046E0
:1032F00000F08CF894F83C0020F0070040F0030048
:1033000084F83C001948007848B904F1240105F11B
:103310002400FCF75EFF3046FCF758FF1CE004F188
:10332000240105F12400FCF754FF0FE00D4800686C
:1033300000F06CF80B48006890F83C0020F00700A3
:1033400040F003000749096881F83C0000BF00BF56
:103350003046FCF73BFF00BFF8BD0000E80000204E
:10336000E4000020EC000020F000002058000020C5
:1033700070B50446FCF726FF0546214800688442E4
:1033800008D194F83C0020F0070040F0030084F8D6
:103390003C0030E014F83C0F20F0070040F0010042
:1033A000207014F83C0900F0080070B194F83D203A
:1033B000144B03EBC20004F11C0142681160426827
:1033C0004A604160086000BF0EE094F83D200D4B5C
:1033D00003EBC20004F11C010268516002680A603C
:1033E0000160486000BF00BF0749206C09680843BE
:1033F0000549086000BF2846FCF7E8FE70BD0000E4
:10340000EC000020F4030020E400002070B5044626
:10341000FCF7D8FE054604F11C00D0E900215160FC
:10342000D0E9001211604060006000BF94F83D10C8
:10343000094A02EBC1000168814201D1012100E08B
:10344000002129B10548216C0068884303490860C0
:103450002846FCF7BBFE70BDF4030020E40000200A
:103460002DE9F04104460D4616461F462A46022124
:103470002046FFF7BBFE2046FDF759FAA684677485
:103480000020BDE8F081000010B50AA0FFF756FD4E
:1034900014A0FFF753FD19A21BA11EA0FFF74EFDBC
:1034A00022A124A0FFF74AFD25A127A0FFF746FD92
:1034B00010BD00000A0A496E74656C6C6967656E20
:1034C0007420656E7669726F6E6D656E74616C20C6
:1034D0006D6F6E69746F72696E672073797374654E
:1034E0006D0A000049454D5309D6C7BBDBBBB7BECB
:1034F000B3BCE0B2E2CFB5CDB30A000031363A3208
:10350000383A3133000000004F63742032332032E8
:1035100030323500CFC2D4D8C8D5C6DABACDCAB198
:10352000BCE43A25730925730A00000056302E3199
:1035300000000000B0E6B1BE3A25730A00000000AA
:10354000D5C5BABC00000000D7F7D5DF3A25730A0D
:1035500000000000F0B507460B460BB90020F0BD97
:103560003946D81C20F003030C2B00D20C23C86B67
:10357000984201D20020F2E7D1F830C0886BA0EB6E
:103580000C046BE0086B0219107800F001000028B1
:1035900061D104F10C00D2F804C0ACEB00009842F9
:1035A00059D304F10C00D2F804C0ACEB000C03F1C9
:1035B0001800844523D304F10C00C618086B851944
:1035C00021F00100286050686860AC605660D5F852
:1035D00004C0C86B0C30844504D0086BD5F804C017
:1035E0006044866003F10C00D1F828C06044886212
:1035F000D1E90AC0604513D2886AC86210E05068F9
:10360000D1F830C0A2EB0C0CA0EB0C00D1F828C014
:1036100060448862D1E90AC0604501D2886AC86204
:1036200021F00100401C1060886B904210D106E030
:10363000D1F838C0086BDCF804C060448863886B3C
:10364000007800F0010018B1D1E90DC06045EFD15C
:1036500002F10C0083E7086B20444468C86BC01A71
:10366000A0428FD200207AE770B5064606B970BD39
:10367000A6F10C04206820F0010525F0010020606F
:10368000A86BA04200D9AC636068296B611A401A2C
:10369000A96A081AA86221462846FEF775FF00BFEE
:1036A000E5E700002DE9F74F0E461746F01C20F025
:1036B000030404F1400B0BF1030020F00308F019A0
:1036C00020F00309B9F1180F08D9A9F118005845DD
:1036D00004D3A9EB0800A0F1180A07E0F21931465B
:1036E0001BA0FFF72BFC0020BDE8FE8F402200212D
:1036F0002046FFF7F8FC0C212046009AFFF776FDE4
:1037000022A0E061C4F82080C4F824A0C4F83CA042
:10371000C4F83080256B24F001002860E06B0C3089
:1037200068600020A860206B69680844606324F02A
:103730000100401C616B0860E06B0C30616B4860FD
:10374000E06B0C30616B8860206BA0632046CBE798
:103750006D656D20696E69742C206572726F7220C0
:10376000626567696E206164647265737320307886
:1037700025782C20616E6420656E6420616464721B
:1037800065737320307825780A000000736D616CD2
:103790006C0000000FB438B5044606A8009020461F
:1037A000009A059900F0D2FC0546002000902846BA
:1037B00038BC5DF814FB00000146002900DA4942DC
:1037C0000B2902DD0348C06A7047024850F8210007
:1037D000FAE700006000002001460A4600E0521CA3
:1037E00010780028FBD1501A704770B50346A2B17B
:1037F00018460C4600BF14F8016B00F8016B3EB987
:1038000002E0002500F8015B551E2A1EF9D102E0F6
:10381000551E2A1EEFD100BF00BF184670BD000024
:103820002DE9F04104460D46E01C20F0030625F08A
:103830000307BA1B214604A0FFF734FF04490860C0
:1038400000BF00BFBDE8F081686561700000000046
:10385000900000200020094A1080014607E0084A35
:1038600002EBC1004060006000BF481C01462029F7
:10387000F5DB0020034A106070470000E8000020DC
:10388000F4030020E400002038B56846FDF78EF808
:103890000446064804602046FFF7B8FD032084F87C
:1038A0003C0004F12400FCF7DAFC38BDEC000020F9
:1038B00010B5002405E0044901EBC400FFF75BFBF1
:1038C000641C002CF7D010BDF400002070472DE9D7
:1038D000FF5F06460F4690461D46DDE90EAB3146BA
:1038E0000120FFF724FC8146B9F1000F03D100202D
:1038F00004B0BDE8F09F2846FFF784FB044624B9D6
:103900004846FFF73EFC0020F2E743463A46314680
:1039100048468DE8300CFDF785F84846E8E700009A
:1039200070B500250C4C2068A04213D02068A0F18F
:103930001C05FCF747FC064605F11C00D0E90021F8
:103940005160D0E9001211604060006000BF304655
:10395000FCF73CFC284670BD50000020024605489C
:1039600002F11C010368596003680B600160486044
:1039700000BF70475000002010B50446204600F0FC
:1039800077F810BD01E0FFF7A7F8FCE710B588B0A5
:10399000002420E0224612A104A8FFF7FBFE20210C
:1039A0001F22CB00104800EB0420CDE90132039127
:1039B000009004EB04110D4A02EBC10000230C4AF5
:1039C00004A900F017F804EB0411084A02EBC10047
:1039D00000F070F8641C002CDCD008B010BD0000B2
:1039E0007469646C65256400F40100206C0100209A
:1039F000853900082DE9FF5F05460C4616461F462F
:103A0000DDE910ABDDE90E89224601212846FFF7EA
:103A1000EDFB3B463246214628468DE8000FFDF778
:103A200001F804B0BDE8F09F70B5044694F83C007E
:103A300000F00700022802D04FF0FF3070BDFCF705
:103A4000C1FB054604F11C00FFF7C9FA04F14C0064
:103A500000F0C4F92046FFF78BFC2846FCF7B6FBC4
:103A60000020EBE70148006870470000EC000020F0
:103A700031B5FFF7F7FF0446FCF7A4FB054600202D
:103A8000A063204600F02AF86A46002104F14C00A9
:103A900000F0C8F804F14C0000F024F92846FCF7C7
:103AA00095FBFFF7D7FBA06B801C08B90020A06333
:103AB000A06B38BD10B5044694F83D100120884035
:103AC0002064022084F83C002046FFF7ADFFFFF79A
:103AD000C9FF08B1FFF7BEFB002010BD70B504465A
:103AE00094F83C0000F00705012D04D0032D02D00E
:103AF0004FF0FF3070BDFCF765FB06462046FFF730
:103B000085FC94F83C0020F0070040F0020084F8A7
:103B10003C0004F14C0000F061F93046FCF756FB24
:103B20000020E7E701480068704700004C000020D3
:103B300070B5FCF747FB054610480068401C0F496C
:103B40000860FFF78FFF0446A06C401EA064A06CC5
:103B500068B9606CA06494F83C0040F0080084F8F8
:103B60003C002846FCF732FBFFF774FB02E02846D6
:103B7000FCF72CFB00F004F870BD00004C000020A6
:103B80007CB56846FFF7F7F9FFF7CCFF0546FCF771
:103B900019FB06463AE022480068A0F11C04206B9D
:103BA000281A6FF0004188422ED22046FCF7B3FF5E
:103BB000607C00F0020018B9607C20F001006074A5
:103BC00004F11C016846FFF7E0F9D4E909108847C1
:103BD000FFF7A8FF05466846FFF7DEF900B115E0DC
:103BE00004F11C00FFF704FA607C00F0020060B1F1
:103BF000607C00F0010040B1607C20F00100607446
:103C0000204600F06FF800E005E000BF0448FFF731
:103C1000C3F90028BFD000BF3046FCF7D7FA7CBDFF
:103C2000F40000202DE9F04104460E461546FCF74D
:103C3000C9FA0746062E21D2DFE806F00603090E70
:103C4000131DE06A28601AE02868E06217E0607CD3
:103C500020F00200607412E0607C40F002006074AA
:103C60000DE0607C00F0010010B10120286001E04F
:103C70000020286003E0206B286000E000BF00BF48
:103C80003846FCF7A3FA0020BDE8F08170B5044681
:103C9000FCF798FA05462046FCF73DFF607C20F0D3
:103CA000010060742846FCF791FA2046FFF77BFA82
:103CB000002070BD2DE9F84307460C4615461E4608
:103CC000DDE9088922460A213846FFF78FFA434684
:103CD000324629463846CDF80090FCF7FBFEBDE899
:103CE000F88300002DE9F84305464FF00008FCF783
:103CF00069FA81462846FCF70EFF687C20F0010037
:103D00006874FFF70FFFE96A08442863314F009792
:103D100000242AE019E05DF8242011681C2202EB3F
:103D2000C402881A026B2B6BD21A00D108E0026B16
:103D30002B6BD21A6FF000439A4200D20CE000BF06
:103D40005DF8240000684DF824005DF8240007EBBE
:103D5000C40149688842DED100BF2CB15DF824005F
:103D60000830611C4DF82100641C002CD2D01A4888
:103D70000068401C184908600846066805F11C01E7
:103D80000098FFF702F9022412E006F0030060B980
:103D9000C4F1010305F11C0202EBC301C4F10102ED
:103DA0005DF82200FFF7F1F800E003E0B608641CBC
:103DB000012CEAD900BF687C40F0010068744846D5
:103DC000FCF704FAB8F1000F01D0FFF743FA002026
:103DD000BDE8F883F4000020FC00002070B5044624
:103DE000607C00F0010010B94FF0FF3070BDFCF7AF
:103DF000E9F905462046FCF78EFE607C20F00100C4
:103E000060742846FCF7E2F90020EFE72DE9FF4F48
:103E100089B081464C460A9809EB00064E4504D20B
:103E20004FF0FF36A6EB09000A9077E10B98007877
:103E3000252806D0B44202D20B9800782070641C6A
:103E400069E1002526E00B98401C0B900B98007848
:103E50002D2802D145F010051CE00B9800782B2886
:103E600002D145F0040515E00B980078202802D116
:103E700045F008050EE00B980078232802D145F0A4
:103E8000200507E00B980078302802D145F00105A5
:103E900000E000E0D7E700BF4FF0FF370B98007855
:103EA00030380A2804D20BA800F0CCFA07460EE0FE
:103EB0000B9800782A280AD10B98401C0B900C987C
:103EC00080C80C90002F02DA7F4245F010054FF0B9
:103ED000FF3A0B9800782E281CD10B98401C0B90B1
:103EE0000B98007830380A2804D20BA800F0AAFA00
:103EF00082460AE00B9800782A2806D10B98401CCD
:103F00000B900C9850F804AB0C90BAF1000F01DA4A
:103F10004FF0000A002004900B980078682803D026
:103F20000B9800786C2805D10B98007804900B98BA
:103F3000401C0B900A2005900B9800786F2873D0D6
:103F40000CDC632813D004DC25286ED058286DD1F2
:103F500095E064286BD06928F9D197E0702873D078
:103F6000732825D075286ED07828F0D18AE005F026
:103F7000100040B904E0B44201D220202070641C3B
:103F8000781E071EF7DC0C9810F8041B0C90C8B2C2
:103F90000790B44201D207982070641C04E0B44238
:103FA00001D220202070641C781E071EF7DCB2E0CE
:103FB0000C98006806900C98001D0C90069808B9A3
:103FC00060A006904FF0000801E008F10108B84534
:103FD00004D0069810F808000028F6D1BAF1000FB6
:103FE00002DDD04500DDD04605F0100048B904E000
:103FF000B44201D220202070641C38467F1E404508
:10400000F6DC002008900BE0B44202D2069800785B
:104010002070641C0698401C06900898401C08906C
:1040200008984045F0DB09E026E01FE032E02CE094
:104030000AE0B44201D220202070641C38467F1E62
:104040004045F6DC67E024E0781C10B9082745F00D
:104050000105CDE9007A02950C9804C81023314679
:104060000C902046FEF7C4FA044654E0B44201D254
:1040700025202070641C4EE0082005901DE045F0CE
:10408000400500BF1020059017E000BF45F0020575
:1040900000BF12E0B44201D225202070641C0B98AE
:1040A000007830B1B44202D20B9800782070641CC2
:1040B00002E00B98401E0B902DE000BF04986C2886
:1040C00007D10C9850F804BB0C9005F00200B8B171
:1040D00016E0049868280BD10C9830F8041B1FFADE
:1040E00081FB0C9005F0020050B10FFA8BFB07E04A
:1040F0000C9850F804BB0C9005F0020000B100BF12
:10410000CDE9007A02955A4631462046059BFEF7D6
:104110006FFA044600BF0B98401C0B900B98007878
:1041200000287FF483AE0A9838B1B44202D200204E
:10413000207002E0002006F8010CA4EB09000DB08D
:10414000BDE8F08F284E554C4C29000037B5054688
:104150000C4622464FF0FF312846029BFFF756FEE1
:104160003EBD0020704700207047002070470020AF
:10417000704710B5FCF726F8FEF718FDFFF784F935
:10418000FFF796FBFFF766FBFEF760FCFFF79EFB71
:10419000FFF7FCFBFFF778FB002010BD10B51D20DA
:1041A000464908704FF4807000F0E2F8E0B14448EE
:1041B0000068012804D100F089F84049087002E045
:1041C0001D203E4908704FF4807000F0CBF84CF28F
:1041D0003A3000F0BFF801203A49086000203A491F
:1041E00008603648007810BD022000F0C1F878B1B0
:1041F000022000F0B7F84CF23A3000F0ABF80020A3
:104200003149086012202D49087008460078EAE715
:10421000082000F0ADF878B1082000F0A3F84CF2C7
:104220003A3000F097F8002027490860142023490D
:10423000087008460078D6E74FF4007000F098F850
:1042400080B14FF4007000F08DF84CF23A3000F07D
:1042500081F800201C49086017201849087008469A
:104260000078C0E7102000F083F878B1102000F04B
:1042700079F84CF23A3000F06DF8002012490860ED
:1042800015200E49087008460078ACE7202000F0A1
:104290006FF878B1202000F065F84CF23A3000F069
:1042A00059F800200849086016200449087008469B
:1042B000007898E70148007895E700001C0000208E
:1042C00018000020200000202400002010B51D242C
:1042D000402200210C2000F011F8002000F070F8BE
:1042E00000F028F80C20FEF74FFA0446204610BDD7
:1042F00001480068C0B27047102C014030B5034639
:1043000000200B4C246824F48064094D2C602C1F81
:10431000246800242D1F2C602C462160241D206859
:1043200020F0FF0043EA020420432C1D206030BD32
:104330000C2C01400348006840F48060014908608B
:10434000704700000C2C01400149086070470000D4
:10435000382C0140024909688143014A11607047C5
:104360003C2C01400149086070470000382C014096
:1043700001460020024A12680A4002B1012070473B
:10438000342C01400146002031B1012907D0022917
:1043900009D003290FD10AE0084A10680CE0074A47
:1043A000121D106808E0054A0832106804E0034A4C
:1043B0000C32106800E000BF00BF7047142C0140B1
:1043C0000549096821F44071034A116011460968E2
:1043D00001431160704700000C2C014070B5044689
:1043E00007A0FEF7ABFD2046FDF712FFFCF734FDFA
:1043F00005462246294603A0FEF7A0FD70BD000039
:104400000A000000257325730000000070B5044603
:1044100025680DE0A5F11C063246102106A0FEF726
:104420008DFD2868A04202D005A0FEF787FD2D680B
:10443000A542EFD170BD0000252E2A7300000000B8
:104440002F0000000146002009E00B685A1C0A609A
:104450001A7800EB800302EB4302A2F130000A68F5
:104460001278303A0A2AF0D3704710B503461A463C
:1044700001E0521C491C107828B1087818B1107856
:104480000C78A042F5D0D01A10BD000008B500206D
:104490003F49096841F480313D4A116000BF3C4901
:1044A000096801F4003129B90146401C4FF6FF723A
:1044B0009142F4D13649096801F4003131B900BFA5
:1044C0003349096801F400310029F9D030494031FD
:1044D000096841F080512E4A403211602D49096827
:1044E00041F440412B4A1160294908310968284AA2
:1044F000083211601146096841F40041116011460B
:10450000096841F4A05111602349121F1160111F65
:10451000096841F08071121F116000BF1C490968D1
:1045200001F000710029F9D01A49096841F480317D
:10453000184A116000BF1749496801F48031002909
:10454000F9D01449096841F40031124A116000BFE2
:104550001049496801F400310029F9D00C490831AB
:1045600009680091009921F003010091009941F040
:1045700002010091064A08320099116000BF044907
:104580000831096801F008010029F8D008BD0000D1
:1045900000380240007000400854400710B5FFF793
:1045A00075FF10BD10B54FF4E13000F077F8002032
:1045B00010BD000010B51EA0FEF7C0FC2048018809
:1045C00020A0FEF7BBFC1E48008800F0010010B1DF
:1045D00022A0FEF7B3FC1A48008800F0020010B1D8
:1045E00021A0FEF7ABFC1648008800F0040010B1D3
:1045F00020A0FEF7A3FC1248008800F0080010B1CC
:104600001EA0FEF79BFC0E48008800F4807010B1DD
:104610001CA0FEF793FC0A48008800F4007010B15B
:104620001BA0FEF78BFC05A0FEF788FC10BD000068
:104630007573616765206661756C743A0A000000E5
:104640002AED00E05343425F434653525F554653C1
:10465000523A30782530325820000000554E4445FB
:1046600046494E5354522000494E565354415445E6
:1046700020000000494E5650432000004E4F43504A
:1046800020000000554E414C49474E454420000053
:1046900044495642595A45524F20000010B504462D
:1046A0004FF44060FEF79CF940F60140FEF798F9A0
:1046B00041F20410FEF794F94FF4004207212B4811
:1046C000FCF74AFE082207212948FCF745FE4FF473
:1046D0000043012202212548FCF771FE4FF40043FC
:1046E000022200212148FCF791FE08230122022129
:1046F0001F48FCF764FE0823022200211C48FCF737
:1047000085FE1C4800F026F921461A4800F0A4F85E
:104710000021184800F010FA0021164800F058FA5D
:104720000021144800F044FA0021124800F0C4F9B6
:104730000021104800F0B6F900210E4800F0A6F95B
:1047400004210C4800F000FA08210A4800F038FA69
:1047500040F20531074800F0B9F900220121252077
:10476000FDF798FE034800F063F910BD0000024019
:10477000000402400010014010B5044640F603401A
:10478000FEF72EF941F21200FEF72AF94FF480727B
:1047900007212F48FCF7E0FD4FF4007207212C4859
:1047A000FCF7DAFD4FF48073012202212848FCF760
:1047B00006FE4FF48073022200212548FCF726FEF6
:1047C0004FF40073012202212148FCF7F8FD4FF459
:1047D0000073022200211E48FCF718FE1D4800F05D
:1047E000B9F821461B4800F037F80021194800F0BD
:1047F000A3F90021174800F0EBF90021154800F05B
:10480000D7F90021134800F057F90021114800F0B2
:1048100049F900210F4800F039F904210D4800F052
:1048200093F908210B4800F0CBF940F20531094813
:1048300000F04CF94FF44171064800F047F90022AE
:1048400011462720FDF726FE024800F0F1F810BDC2
:10485000000C0240004800402DE9F04704460D4698
:104860000027B846B94600263349601A8C4235D035
:104870000CDC32482044E8B1B0F5806F1FD0B0F5B1
:10488000006F21D0B0F5406F32D122E0B0F5806FDB
:1048900029D0B0F5184F03D0B0F51C4F28D104E053
:1048A0000320FEF70BF8074623E00320FEF706F887
:1048B00007461EE00220FEF701F8074619E0022035
:1048C000FDF7FCFF074614E00220FDF7F7FF07465F
:1048D0000FE00220FDF7F2FF07460AE00220FDF795
:1048E000EDFF074605E00220FDF7E8FF074600E080
:1048F00000BF00BFE06800F4004070B1780000EB3A
:104900005500B0FBF5F64FF6F07006EA0008C6F366
:10491000420948EA0900A0600CE007EB5500B0FB33
:10492000F5F64FF6F07006EA000806F00F0948EABF
:104930000900A060BDE8F0870078004000BCFFBF20
:1049400001464868C0F308007047C1F3080242609E
:104950007047000010B504463349601A8C424DD0B0
:104960000CDC32482044E0B1B0F5806F22D0B0F5C5
:10497000006F31D0B0F5406F52D136E0B0F5806FA6
:1049800045D0B0F5184F03D0B0F51C4F48D11AE010
:1049900040F60410FEF748F840F60410FEF732F82F
:1049A0003FE040F61100FEF73FF840F61100FEF739
:1049B00029F836E040F61200FEF736F840F612000D
:1049C000FEF720F82DE040F60510FEF72DF840F632
:1049D0000510FEF717F824E040F61300FEF724F860
:1049E00040F61300FEF70EF81BE040F61400FEF749
:1049F0001BF840F61400FEF705F812E040F61E0022
:104A0000FEF712F840F61E00FDF7FCFF09E040F645
:104A10001F00FEF709F840F61F00FDF7F3FF00E066
:104A200000BF00BF10BD00000078004000BCFFBF09
:104A3000C16841F40051C160704710B543F20802EB
:104A400091420BD100EB9112126801F01F04012377
:104A5000A3409A4300EB91131A6007E001F01F0393
:104A600001229A40D24300EB91131A6010BD10B599
:104A7000024602EB9110006801F01F040123A340DD
:104A8000184008B1012010BD0020FCE750F8C02FED
:104A900022F001020260026801F001031A4340F8AB
:104AA000C0297047426922F400724261426901F4F0
:104AB00000731A4342617047426922F48072426176
:104AC000426901F480731A434261704710B500EBEC
:104AD0009112126801F01F040123A3401A4300EB56
:104AE00091131A6010BD10B500EB91521268C1F31A
:104AF00004440123A3409A4300EB91531A6010BD74
:104B000070B5024600230024C1F38910105801F04B
:104B10001F060125B54000EA050302EB915000682D
:104B2000C1F304460125B54000EA050414B10BB1F8
:104B3000012070BD0020FCE7C26822F4C062C260A0
:104B4000C2680A43C26070470A460021C16821F06A
:104B500004011143C160704770B505460C460BE077
:104B600021782846FFF7F1FE00BF06212846FFF70F
:104B70007EFF0028F9D0641C20780028F0D170BD99
:104B80002DE9F04107460D46164600240CE0295D4C
:104B90003846FFF7DAFE00BF06213846FFF767FF09
:104BA0000028F9D0601C84B2B442F0DBBDE8F0818B
:104BB000026922F44052026102690A4302617047AD
:104BC0000A460021C16821F008011143C160704705
:104BD000C26822F48052C260C2680A43C260704751
:104BE00010B5FEF751FC002010BD00004FF4E1307D
:104BF000FFF7C2FD4FF47A70FEF7BEFE10A1124817
:104C0000FFF7AAFF1AE011480088012812D10020FE
:104C10000E4908800EA11048FBF791FB38B9FCF74C
:104C200095FB044621460DA0FEF788F902E010A08E
:104C3000FEF784F94FF47A70FEF79EFEE3E700007A
:104C400041540D0A00000000004800402A010020E5
:104C50000D0A4F4B0D0A0000F54100205B25645DF5
:104C600057494649B2E2CAD4B3C9B9A60D0A0000F1
:104C700057494649B2E2CAD4CAA7B0DC0D0A0000BF
:104C80000000010002000100030001000200010019
:104C90000400010002000100030001000200010005
:104CA00005000100020001000300010002000100F4
:104CB00004000100020001000300010002000100E5
:104CC00006000100020001000300010002000100D3
:104CD00004000100020001000300010002000100C5
:104CE00005000100020001000300010002000100B4
:104CF00004000100020001000300010002000100A5
:104D00000700010002000100030001000200010091
:104D10000400010002000100030001000200010084
:104D20000500010002000100030001000200010073
:104D30000400010002000100030001000200010064
:104D40000600010002000100030001000200010052
:104D50000400010002000100030001000200010044
:104D60000500010002000100030001000200010033
:104D70000400010002000100030001000200010024
:104D800030313233343536373839616263646566C1
:104D900000303132333435363738394142434445B7
:104DA000460000004F4B000045494E56414C000064
:104DB00045525346554C4C00454E4F4D454D000015
:104DC00045494F004552524F52000000454E4F5347
:104DD0005953000045494E54525054004554494DD2
:104DE0004F55540045554E4B4E4F57004542555375
:104DF000590000004552534550545900252D2A2E84
:104E00007320707269202073746174757320202080
:104E100020202073702020202020737461636B2079
:104E200073697A65206D61782075736564206C659F
:104E30006674207469636B20206572726F720A0059
:104E4000636C65617200636C6561722074686520D3
:104E50007465726D696E616C2073637265656E0056
:104E600076657273696F6E0073686F772052542D88
:104E70005468726561642076657273696F6E20692B
:104E80006E666F726D6174696F6E006C6973745FCA
:104E9000746872656164006C69737420746872650B
:104EA0006164006C6973745F73656D006C69737421
:104EB0002073656D6170686F726520696E2073790B
:104EC0007374656D006C6973745F6D61696C626F9A
:104ED00078006C697374206D61696C20626F782052
:104EE000696E2073797374656D006C6973745F7497
:104EF000696D6572006C6973742074696D657220E8
:104F0000696E2073797374656D006C697374006CDD
:104F1000697374206F626A656374730068656C708E
:104F20000052542D546872656164207368656C6C1E
:104F30002068656C702E00006F4100086741000812
:104F4000A545000863410008ED0E00086B4100080C
:104F5000404E0008464E0008150D0008604E00083F
:104F6000684E0008E14B00088B4E0008974E000881
:104F7000151D0008A34E0008AC4E0008DD1B0008FC
:104F8000C54E0008D24E0008811A0008EA4E0008FB
:104F9000F54E0008011F00080A4F00080F4F0008D7
:104FA000290D00081C4F0008214F0008412300086C
:104FB000D04F00080000002030010000B0030008BE
:104FC0003450000830010020C84600000C090008D9
:104FD000F264B201022C1D447A030A22502A2004F2
:104FE0008113A44D1B08C4041ADC041AB0041AF47B
:104FF000041AB8041ACC041AEC041AC0041AD40413
:105000001AA8041AE40469841A98442904328832DC
:10501000021AA80C2904322832051AB80C290432C5
:105020003829791AC80C29043234320C1AD80C29C0
:0450300004024F30F7
:040000050800018965
:00000001FF
