:020000040800F2
:10000000E0470020A101000841040008AD020008FB
:100010003D040008DF030008750800080000000028
:100020000000000000000000000000004D04000877
:100030002904000800000000F30100085104000832
:10004000BB010008BB010008BB010008BB010008A0
:10005000BB010008BB010008BB010008BB01000890
:10006000BB010008BB010008BB010008BB01000880
:10007000BB010008BB010008BB010008BB01000870
:10008000BB010008BB010008BB010008BB01000860
:10009000E5030008BB010008BB010008BB01000824
:1000A000BB010008BB010008BB010008BB01000840
:1000B000BB010008BB010008BB01000835040008B3
:1000C0002D040008BB010008BB010008BB010008AB
:1000D000BB010008ED06000835070008B507000859
:1000E000BB010008BB010008BB010008BB01000800
:1000F000BB010008BB010008BB010008BB010008F0
:10010000BB01000845040008BB010008BB01000852
:10011000BB010008BB010008BB010008BB010008CF
:10012000BB010008BB010008BB010008BB010008BF
:10013000BB010008BB010008BB010008BB010008AF
:10014000BB010008BB010008BB010008BB0100089F
:10015000BB010008BB010008BB010008BB0100088F
:10016000BB010008BB010008BB010008BB0100087F
:10017000BB010008BB010008BB0100080000000033
:10018000BB010008BB010008DFF810D000F010F937
:1001900000480047D5030008AFF30080E047002087
:1001A0000648804706480047FEE7FEE7FEE7FEE711
:1001B000FEE7FEE7FEE7FEE7FEE7FEE77105000863
:1001C00089010008EFF3108072B6704780F3108841
:1001D0007047444A1368012B04D04FF001031360A9
:1001E000414A1060414A116041484FF0805101601E
:1001F0007047EFF3108272B63A48016851B34FF07E
:10020000000101603848016891B1EFF309811EF0E7
:10021000100F08BF21ED108B21E9F00F4FF0000403
:100220001EF0100F08BF012441F8044D0068016062
:100230002E490968096808C9B1E8F00F002B18BFFA
:10024000B1EC108B81F309884EF0100E002B18BF13
:100250002EF0100E82F310884EF0040E70472349E2
:100260000860EFF3148222F0040282F314881E491E
:100270004FF0000008601B494FF0010008601D4866
:100280001D49D0F8002041EA0201016018484FF0F2
:100290008051016019480068006880F3088861B6E1
:1002A00062B6BFF34F8FBFF36F8F70471EF0040F1E
:1002B0000CBFEFF30880EFF3098020E9F00F40F85E
:1002C00004ED40F804ED1EF0040F0CBF80F3088825
:1002D00080F3098800B502F095FC5DF804EB4EF060
:1002E000040E7047080100200001002004010020D6
:1002F00004ED00E020ED00E00000FFFF08ED00E06D
:10030000D2B201E000F8012B491EFBD27047002257
:10031000F6E710B513460A4604461946FFF7F0FF04
:10032000204610BD421E12F8013F002BFBD111F8F0
:10033000013B02F8013B002BF9D1704710B5044690
:1003400004E00B7800F8013B03B1491C521EF8D2BF
:10035000204610BD421C10F8011B0029FBD1801A59
:10036000704710B5002200E0521C835C8C5CA342F5
:1003700001D1002BF8D1D8B2E1B2401A10BD03462A
:1003800011F8012B00F8012B002AF9D1184670470B
:1003900030B505460020034600E05B1C934205D2C1
:1003A000EC5CC85C201A01D1002CF6D130BD0000F5
:1003B000064C074D06E0E06840F0010394E80700B2
:1003C00098471034AC42F6D3FFF7E2FE884D0008A0
:1003D000A84D000810B503F088FE002010BD00BF36
:1003E000FEE7000010B50C4A00210C4800F002FCAA
:1003F0000948006832280AD10748007A38B9064807
:10040000807A082803D101200549087002E0012004
:100410000449087010BD0000500300200064004033
:100420002E0000202F00002000BFFEE710B501F0D5
:10043000AFF810BD10B501F00BF910BD00BFFEE71D
:1004400000BFFEE710B503F065FE10BD00BFFEE77C
:1004500010B502F013FD03F027FB02F01FFD10BDE5
:100460002DE9FF470FF2E80ADAE900C8DAE9029A53
:10047000CDE900C8CDE9029ADFF8E4C0DCF800C09D
:10048000CCF3810727B1012F09D0022F43D10DE012
:10049000DFF8D0C0DFF8D080C8F800C042E0DFF855
:1004A000CCC0DFF8C480C8F800C03BE0DFF8B0C0C3
:1004B000ACF1040CDCF800C00CF03F01DFF8A0C088
:1004C000ACF1040CDCF800C0CCF38812DFF890C06B
:1004D000ACF1040CDCF800C0CCF3014C0CF1010CC5
:1004E0004FEA4C04DFF878C0ACF1040CDCF800C033
:1004F0000CF48003B3F5800F01D11C4800E01948CB
:10050000B0FBF1FC0CFB02FCBCFBF4FCDFF85880F8
:10051000C8F800C006E0DFF84CC0DFF84C80C8F82F
:1005200000C000BF00BFDFF838C0DCF800C0CCF36B
:1005300003151DF80560DFF830C0DCF800C02CFAA8
:1005400006FCDFF82480C8F800C0BDE8FF87000083
:100550000000000000000000010203040607080973
:10056000083802400024F4004800002000127A00FD
:100570001CB55A48006840F4700058490860584853
:10058000006840F001005649086000BF5448006808
:1005900000F002000028F9D051480830006800F04F
:1005A0000C0008286ED100BF0020019002E00198E5
:1005B000401C019001985028F9D349480830006840
:1005C0000090009820F0F0000090009840F080002B
:1005D000009043490831009808600020019002E033
:1005E0000198401C019001985028F9D33C480830EC
:1005F00000680090009820F0F0000090009840F013
:100600009000009036490831009808600020019061
:1006100002E00198401C019001985028F9D330481D
:10062000083000680090009820F0F00000900098DA
:1006300040F0A00000902A4908310098086000208E
:10064000019002E00198401C019001985028F9D3D4
:100650002348083000680090009820F0F0000090D7
:10066000009840F0B00000901D49083100980860E3
:100670000020019002E00198401C01900198502850
:10068000F9D300BF16480830006820F00300144971
:1006900008310860C82000F081F91148006811494C
:1006A00008400F4908600846006820F48020086070
:1006B00000200B490831086000BF09480830006875
:1006C00000200028F9D108480549091D08600020CC
:1006D00003490C31086003F01DFF1CBD88ED00E0EC
:1006E00000380240FFFFF6FE1030002410B50D491F
:1006F0000D4804F051F9A0B105210B4804F003F9AD
:1007000078B1094804F068F80849086001200849F0
:1007100008700521044804F0DCF80249024804F09E
:100720002EF910BD05030500001001402001002036
:100730002401002010B51949194804F02DF9C8B159
:100740000521174804F0DFF8A0B1154804F044F87B
:10075000C1B2144802680068401C124B186012486D
:1007600081540E490E4804F00AF905210C4804F0A2
:10077000B0F811E00D490A4804F00EF960B100200C
:100780000849086001200A4908700849044804F033
:10079000F6F8034804F020F810BD0000050305003A
:1007A0000044004028000020280300200403040027
:1007B0002C00002010B52849284804F0EDF8E8B1D5
:1007C0000521264804F09FF8C0B125480088B0F5FF
:1007D000FF7F0BDC214803F0FFFFC1B220480288F5
:1007E0000088401C1E4B18801E48815405211B4860
:1007F00004F06FF81849194804F0C1F81A4917486D
:1008000004F0CAF830B30421144804F07CF808B3AB
:10081000124803F0E1FF044600201249104A1288F2
:1008200088540F480288114804F0E2F8012010496A
:10083000088000200A4908804FF400710948FFF73A
:1008400066FD0421094804F044F80749034804F010
:1008500096F800BF10BD00000503050000480040E9
:1008600002000020280100200403040000100140C1
:100870000000002000BFFEE7014609B900207047D4
:10088000C8B220B1C8B20E4A105C401CF7E701F4B0
:100890007F4028B10A48C1F30722805C0930EEE7A7
:1008A00001F47F0028B10648C1F30742805C113093
:1008B000E5E7034800EB116000781930DFE700003E
:1008C0005A4A000802E008C8121F08C1002AFAD1DB
:1008D00070477047002001E001C1121F002AFBD1C0
:1008E000704710B502F0D8F8002010BD10B50446CE
:1008F00002F0E2F810BD10B5044604F1140002F055
:10090000F7FA002010BD2DE9F04389B0064688466D
:100910009146002400E0641C305D202804D0305D46
:10092000092801D04445F6D324B94FF0FF3009B06F
:10093000BDE8F0832146304601F0A2FC054615B91A
:100940004FF0FF30F3E72022002101A802F08BFBDB
:1009500001AA4146304601F0E5FC074617B94FF0C1
:10096000FF30E4E701A93846A847C9F80000002095
:10097000DDE7000070B5044606480068FFF77CFF1D
:10098000451E054850F83500A0F114062560304694
:1009900070BD0000E4000020DC05002008B5002147
:1009A000009102E00099491C009100EB8001009A3F
:1009B000B2EB410FF6D308BD70B503F00FF8044653
:1009C000FFF700FC0546204602F0E0FC04F144007D
:1009D00003F018F9042084F83400204602F07AFF6E
:1009E0002846FFF7F3FB02F0F5FB70BD2DE9FC5F35
:1009F00004468B4615461E46DDE90D9ADDF830802B
:100A00000F9F04F114004060006000BF2562666221
:100A1000C4F82880C4F82C902321D4E90A0202F0FB
:100A200022FBD4E90A3C63441A1F0E4BD4E90801A7
:100A300002F0FCF9E06184F835A00020A063E763D0
:100A40002764206384F834002067606700902346A1
:100A5000054A2146019004F1440003F0E7F8002024
:100A6000BDE8FC9FB90900086D0A000870B504468E
:100A70002546FFF7A7FB06466FF00100286305F146
:100A8000140002F06CFA284602F032FC3046FFF700
:100A90009DFB02F09FFB70BD2DE9F04704460E461A
:100AA00017469846DDF8209084F80990607A20F087
:100AB00001006072E66127620020A062C4F8248011
:100AC000002506E004F1140101EBC50002F013FA61
:100AD0006D1C012DF6DBBDE8F08770B505460024DE
:100AE00006E005F1140101EBC40002F041FA641CB8
:100AF000012CF6DB70BD000010B520A002F0DEF97D
:100B00002148017821A002F0D9F91F48007800F0AF
:100B1000010010B123A002F0D1F91B48007800F0C9
:100B2000020010B122A002F0C9F91748007800F0C5
:100B3000040010B121A002F0C1F91348007800F0C0
:100B4000080010B121A002F0B9F90F48007800F0B8
:100B5000100010B120A002F0B1F90B48007800F0AD
:100B6000800030B108480F3001681DA002F0A6F9DE
:100B700002E01FA002F0A2F910BD00006275732010
:100B80006661756C743A0A0029ED00E05343425FD8
:100B9000434653525F424653523A307825303258DA
:100BA00020000000494255534552522000000000E9
:100BB000505245434953455252200000494D50522E
:100BC000454349534552522000000000554E5354AE
:100BD0004B4552522000000053544B4552522000C6
:100BE0005343422D3E424641523A253038580A007E
:100BF0000A00000010B500F5D87303EB01131B6861
:100C000003F004031372137A3BB900F5D87303EBB6
:100C100001131B685B0D136006E000F5D87303EB4E
:100C200001131B68DB08536000F5D87303EB011355
:100C30001B6803F00203537200F5DA7303EB011330
:100C40001B681B0AD37400F5DA7303EB01131B68EE
:100C500003F00F03937200F5DC7303EB01131B68C1
:100C6000D37200F5DC7303EB01131B681C0A1473C9
:100C700000F5DC7303EB01131B681C0C547300F5C7
:100C8000DC7303EB01131B681C0E947300F5DE7319
:100C900003EB01131B68D37300F5DE7303EB011341
:100CA0001B681C0A147400F5DE7303EB01131B6848
:100CB0001C0C547400F5DE7303EB01131B681C0E4F
:100CC000947421B9C36843F02003C36003E003694F
:100CD00043F02003036110BD10B502A002F0EEF84E
:100CE000002010BD1B5B324A1B5B480070B50546F7
:100CF0000C46022D22D11CA16068FFF732FB10B90F
:100D000000F0E6FF18E01AA16068FFF72AFB10B9AF
:100D100001F0D4F810E018A16068FFF722FB10B9C9
:100D200000F03AFF08E015A16068FFF71AFB10B960
:100D300000F084FE00E002E0002070BD00BF11A0C2
:100D400002F0BCF815A002F0B9F817A002F0B6F84E
:100D50001CA002F0B3F822A002F0B0F827A002F025
:100D6000ADF80020E9E70000746872656164000076
:100D700074696D657200000073656D006D61696C6A
:100D8000626F780055736167653A206C69737420EF
:100D90005B6F7074696F6E735D0A00005B6F7074D7
:100DA000696F6E735D3A0A002020202074687265B6
:100DB0006164202D206C69737420746872656164AD
:100DC000730A00002020202074696D6572202D2098
:100DD0006C6973742074696D6572730A0000000099
:100DE0002020202073656D202D206C697374207382
:100DF000656D6170686F7265730A000020202020A5
:100E00006D61696C626F78202D206C697374206D40
:100E100061696C626F78730A0000000010B51048B9
:100E2000006890F82100C0F3400020B900200D496F
:100E30000870084610BD0C48006838B14FF4807245
:100E4000094801680748FFF779FA03E007A1054858
:100E5000FFF795FA07A10348FFF764FA0148E9E7AD
:100E600018010020DC0600201C0100206D736820A2
:100E7000000000003E00000010B501F093FE10BD20
:100E80000549096891F8211060F34101024A12688E
:100E900082F821107047000018010020024A1060FB
:100EA000024A116070470000100100201401002068
:100EB0007CB5002517491848FFF7F0FF782101207D
:100EC00001F09CFD154908600846006820B914A08F
:100ED00001F0F4FF681E7CBD0A2015214FF48063E9
:100EE0000022CDE90010144914A002F0ACFC044625
:100EF00000231A4613A10948006802F071FA012084
:100F0000FFF7BEFF1CB115B9204602F08FFD00208F
:100F1000E1E70000884D0008284D00081801002076
:100F20006E6F206D656D6F727920666F72207368C9
:100F3000656C6C0A000000004D0F00087473686552
:100F40006C6C00007368727800000000E84800686C
:100F500090F8210020F00100401CE549096881F863
:100F60002100FFF75BFF054601F0A8FFBEE1FFF798
:100F700083FF0446002C00DAB8E11B2C05D10120C8
:100F8000DB49096881F82000B0E1D948006890F891
:100F9000200001280DD15B2C05D10220D44909681D
:100FA00081F82000A2E10020D149096881F82000E1
:100FB00045E0CF48006890F8200002283FD100208B
:100FC000CB49096881F82000412C00D18EE1422CE8
:100FD00000D18BE1442C11D1C5480068B0F87600EF
:100FE00058B1C4A001F06AFFC1480068B0F87600AB
:100FF000401EBF490968A1F8760077E1432C1ED155
:10100000BB480068B0F87600B9490968B1F87410B7
:10101000884213DAB6480068B0F87620B448006811
:101020002230815CB4A001F049FFB1480068B0F8FB
:101030007600401CAE490968A1F8760056E10CB173
:10104000FF2C00D152E1092C1FD1002503E0A9A0FB
:1010500001F034FF6D1CA6480068B0F87600A84285
:10106000F5DCA3480068223003F074F9A04800685A
:101070002230FFF76FF980B29D490968A1F874002A
:101080009B490968A1F8760030E17F2C01D0082C3B
:101090006ED197480068B0F8760000B926E1944810
:1010A0000068B0F87400401E91490968A1F8740006
:1010B0008F480068B0F87600401E8D490968A1F895
:1010C00076008B480068B0F8740089490968B1F867
:1010D000761088423FDD864B1B68B3F87430844E2F
:1010E0003668B6F876609A1B814B1B68B3F8763089
:1010F0005B1C7F4E3668223699197D4B1B68B3F80E
:1011000076607B4B1B682233F01801F08BFF0022C6
:1011100077480068B0F8741075480068223042546F
:1011200073480068B0F876207148006822301118C2
:1011300072A001F0C3FE6E480068B0F8765003E07C
:101140006CA001F0BBFE6D1C69480068B0F874002B
:10115000A842F5DA0BE06BA001F0B0FE0021644874
:101160000068B0F874206248006822308154BDE005
:101170000D2C01D00A2C28D15D48006890F8210080
:1011800000F0010010B160A001F098FE584800681E
:10119000B0F8741056480068223001F03BF8FFF7B1
:1011A0003DFE054601F08AFE5122002150480068AC
:1011B000223001F058FF00204D490968A1F8740061
:1011C0004B490968A1F8760090E049480068B0F8FA
:1011D0007400502804DB002045490968A1F8740018
:1011E00043480068B0F8760041490968B1F87410C6
:1011F000884245DA3E4B1B68B3F874303C4E366883
:10120000B6F876609A1B3A4B1B68B3F87660384B99
:101210001B682233F118364B1B68B3F876305B1C21
:10122000334E36682236981901F0FCFE30480068CB
:10123000B0F876202E480068223084542C4800688C
:1012400090F8210000F0010050B129480068B0F882
:10125000762027480068223011182CA001F02EFEBD
:1012600023480068B0F8765003E022A001F026FE83
:101270006D1C1F480068B0F87400A842F5DC12E04D
:101280001B480068B0F87420194800682230845464
:101290001748006890F8210000F0010018B12146BD
:1012A00015A001F00BFE002411480068B0F874008E
:1012B000401C0F490968A1F874000D480068B0F897
:1012C0007600401C0A490968A1F8760008480068C1
:1012D000B0F87400502808DB002005490968A1F81F
:1012E000740003490968A1F8760000BF3FE60000DA
:1012F0001801002008000000256300000825732065
:1013000020080000082008000A00000025730000E3
:10131000F0B503461C6A5D6A00200DE00126864098
:1013200016403EB187000F26BE40B443860001FA46
:1013300006F63443461CB0B20828EFD3082011E06B
:101340000126864016405EB1A0F10806B7000F26C0
:10135000BE40B543A0F10806B60001FA06F63543D3
:10136000461CB0B21028EBD31C625D62F0BD8162F6
:10137000704781617047F0B504460D4616462168F6
:10138000E268002019E0012787401F409FB14FEA23
:10139000400C032707FA0CF7B943470005FA07F793
:1013A00039434FEA400C032707FA0CF7BA434700CA
:1013B00006FA07F73A43471CB8B21028E3D3216076
:1013C000E260F0BDF0B50C461546012C03D146682D
:1013D0001E43466002E046689E43466082680021E4
:1013E0000DE001268E401E403EB14F000326BE4058
:1013F000B2434E0005FA06F632434E1CB1B2102934
:10140000EFD38260F0BD000010B51448006800F012
:10141000020010B112A001F051FD1048006800F068
:10142000804088B10D48C01E007808B1FFF764FB0A
:101430000A48001F007808B100F036FE0748801EF9
:10144000008808B103F072F80448006800F000401A
:1014500010B109A001F032FD10BD00002CED00E03C
:101460006661696C656420766563746F7220666579
:101470007463680A00000000646562756720657621
:10148000656E740A000000000A460021016821F41C
:10149000806111430160704701460869C0B270471E
:1014A000CAB20261704710B5024602EB91100068A3
:1014B00001F01F040123A340184008B1012010BD12
:1014C0000020FCE710B500EB9112126801F01F0438
:1014D0000123A3409A4300EB91131A6010BD000052
:1014E00010B5094A914202D1426982690AE000EBD3
:1014F00091521268C1F304440123A3409A4300EBC4
:1015000091531A6010BD000009010105F0B50246B3
:1015100000230024506800F48065C1F3891010583E
:1015200001F01F070126BE4000EA060302EB9150BE
:101530000068C1F304470126BE4000EA06040848DB
:10154000814202D00748814204D113B10DB1012379
:1015500000E0002314B10BB10120F0BD0020FCE736
:10156000090106050901070512F1020F02D121F058
:10157000010101E041F0010101617047016841F49E
:10158000807101607047016841F40071016070472B
:1015900010B527492748FFF7B9FF18B12449254856
:1015A000FFF79EFF24492348FFF7B0FF18B12249F7
:1015B0002048FFF795FF21491E48FFF7A7FF18B104
:1015C0001E491C48FFF78CFF1D491A48FFF79EFF74
:1015D00018B11B491748FFF783FF1A491548FFF751
:1015E00095FF18B117491348FFF77AFF16491148BC
:1015F000FFF78CFF18B114490E48FFF771FF13492C
:101600000C48FFF783FF18B110490A48FFF768FF3D
:101610004FF484710748FFF755FF4FF48571054873
:10162000FFF750FF40F209110248FFF74BFF10BDD2
:1016300008010A050054004008010F0508010E05C5
:1016400008010B05080109050801080508010C053A
:1016500010B59E480078002871D19D480078072871
:101660006AD2DFE800F00413206969375300994912
:101670009948FFF74BFF40B16FF00102A021964857
:10168000FFF772FF01209249087056E09349924893
:10169000FFF73CFF30B191498F48FFF721FF02204F
:1016A0008B49087049E08E498B48FFF72FFF80B1C6
:1016B0008C480088C1B28848FFF7F2FE00BF40F2B4
:1016C00002518548FFF7EFFE0028F8D00520804939
:1016D000087032E082498048FFF718FFA8B18248BD
:1016E0000068017880480068401C7F4B18607A4889
:1016F000FFF7D6FE7D480088401E7C4908800846DA
:10170000008810B906207249087016E07248FFF789
:101710003AFF4FF484717048FFF7D4FE4FF485719F
:101720006D48FFF7CFFE40F209116B48FFF7CAFE84
:1017300000206749087000E000BFC6E0FFE763488B
:1017400000780128F9D16A480078062873D2DFE8CA
:1017500000F003121F4359735E495F48FFF7D6FE3E
:1017600040B16FF00102A0215B48FFF7FDFE0120B0
:101770005F490870A8E059495748FFF7C7FE30B1E4
:1017800056495548FFF7ACFE0220594908709BE0C6
:1017900053495148FFF7BAFEE8B156480088C1B234
:1017A0004D48FFF77DFE00BF40F202514A48FFF767
:1017B0007AFE0028F8D04848FFF7E5FE00BF46480B
:1017C000006800F400700028F9D14348FFF7D6FE06
:1017D00003204749087077E03E493F48FFF796FEEF
:1017E00078B10122A0213C48FFF7BEFE3F480088A7
:1017F000032803DA00213848FFF746FE04203C495D
:10180000087061E035493448FFF780FE90B13349F4
:101810003148FFF765FE35480088012803D033487A
:101820000088022803D100212B48FFF72DFE052058
:101830002F49087048E046E02F492748FFF766FE29
:10184000F0B32A48008800283CDD28480088032897
:101850000BD100BF40F202511F48FFF724FE0028C1
:10186000F8D000211C48FFF70FFE1B48FFF714FEBD
:1018700022490968087021480068401C1F49086017
:101880001A480088401E1949088008460088B8B9DF
:101890000020174908701048FFF775FE4FF4847157
:1018A0000D48FFF70FFE4FF485710B48FFF70AFE56
:1018B00040F209110848FFF705FE0020034900E047
:1018C00000E0087000E000BF00BF10BD460000202F
:1018D0003100002009010005005400400901010504
:1018E00009010705420000203800002040000020C8
:1018F0003000002044000020090106053C000020C3
:1019000010B540F6024001F02BF84FF400530022CE
:1019100001210A48FFF72FFD4FF400530222002156
:101920000648FFF74FFD4FF4005004492831086086
:1019300001460248FFF71DFD10BD000000080240EF
:1019400010B54FF400510248FFF713FD10BD000021
:101950000008024010B54FF400510248FFF707FDA0
:1019600010BD000000080240FFF7CAFF0BE0FFF7C0
:10197000F1FF4FF47A7001F0BBFFFFF7E1FF4FF486
:101980007A7001F0B5FFF2E72DE9F04704460D4605
:1019900016461F46284601F0D5FB814609F104088A
:1019A000C4F8008025726660E76000202061BDE811
:1019B000F0872DE9F84F07460C464FF0000A00204B
:1019C0002061E06808B1207A10B90020BDE8F88FE6
:1019D000D4F800801FB945464FF0010A00E03D46AB
:1019E000FEF7F0FB0090BAF1000F0ED1A5F10C0B41
:1019F0009BF8080020F08000217A884204D00098EB
:101A0000FEF7E4FB0020E1E700BF0026D4F80490D5
:101A10000BE02D68454501D1002507E0761C49F80B
:101A2000045BE068B04200D100E0F2E700BF00983C
:101A3000FEF7CCFB26612846C8E700002DE9F04FF1
:101A400091B000270FF2D409082304AA05210CA89D
:101A5000FFF79AFF4FF008084A46414631A001F0CF
:101A60002DFA404600F042FD37A001F027FA00BFF2
:101A70000CA93846FFF79DFF0746002545E004A85E
:101A800050F82500A0F10C06FEF79CFB8346307A47
:101A900020F080009DF83810884203D05846FEF7A9
:101AA00095FB31E05846FEF791FB344604F11400F3
:101AB00001F03AFAB8B904F1140001F03DFA824697
:101AC000208C618C23460822CDE9010A0091414611
:101AD00024A001F0F3F904F1140002F053FC27A054
:101AE00001F0ECF90FE004F1140001F025FA824650
:101AF000208C618C23460822CDE9010A00914146E1
:101B00001FA001F0DBF900BF6D1C1098A842B6DCE5
:101B1000002FADD1002011B0BDE8F08F6D61696C70
:101B2000626F7800252D2A2E7320656E74727920DD
:101B300073697A652073757370656E64207468725A
:101B40006561640A00000000202D2D2D2D20202D20
:101B50002D2D2D202D2D2D2D2D2D2D2D2D2D2D2DC2
:101B60002D2D0A00252D2A2E2A732025303464209D
:101B700020253034642025643A0000000A0000006B
:101B8000252D2A2E2A732025303464202025303438
:101B9000642025640A0000002DE9F04F8FB0002773
:101BA0000FF2CC09082302AA02210AA8FFF7ECFED3
:101BB0004FF008084A46414630A001F07FF9404600
:101BC00000F094FC34A001F079F900BF0AA938466E
:101BD000FFF7EFFE0746002541E002A850F8250078
:101BE000A0F10C06FEF7EEFA8346307A20F0800072
:101BF0009DF83010884203D05846FEF7E7FA2DE0F2
:101C00005846FEF7E3FA344604F1140001F08CF96B
:101C1000A8B904F1140001F08FF98246A08B234685
:101C200008224146CDE9000A21A001F047F904F15C
:101C3000140002F0A7FB17A001F040F90DE004F139
:101C4000140001F079F98246A08B23460822414610
:101C5000CDE9000A1AA001F031F900BF6D1C0E9801
:101C6000A842BADC002FB1D100200FB0BDE8F08F40
:101C700073656D6170686F7265000000252D2A2EF6
:101C800073207620202073757370656E64207468ED
:101C9000726561640A000000202D2D2D202D2D2D50
:101CA0002D2D2D2D2D2D2D2D2D2D2D0A000000003B
:101CB000252D2A2E2A7320253033642025643A00EE
:101CC000252D2A2E2A7320253033642025640A000E
:101CD0002DE9F04FB1B04FF000090FF2241B08239B
:101CE00023AA01212BA8FFF74FFE4FF0080A5A46FE
:101CF0005146454801F0E2F8504600F0F7FB43A09A
:101D000001F0DCF800BF2BA94846FFF752FE8146E0
:101D10004FF0000869E023A850F82800A0F10C0556
:101D2000FEF750FA3090287A20F080009DF8B41029
:101D3000884203D03098FEF749FA54E078222946C9
:101D400005A801F031F93098FEF740FA2C4694F8D6
:101D5000350023460822514600903CA001F0AEF821
:101D600094F8340000F00706012E03D13AA001F0E8
:101D7000A5F815E0022E03D13AA001F09FF80FE07C
:101D80001EB93BA001F09AF80AE0042E03D13BA053
:101D900001F094F804E0032E02D13BA001F08EF88C
:101DA000A76A00E07F1C38782328FBD0206B01F065
:101DB000BFFC0490D4E90A10791A401A6421484300
:101DC000E16AB0FBF1F003900498216CCDE90010BA
:101DD000E369A06AC01AE36AC1181A462DA0039BE2
:101DE00001F06CF800BF08F101082F98404592DC23
:101DF000B9F1000F87D1002031B0BDE8F08F0000AD
:101E00007468726561640000D44B0008202D2D2D8C
:101E100020202D2D2D2D2D2D2D202D2D2D2D2D2D19
:101E20002D2D2D2D202D2D2D2D2D2D2D2D2D2D20FC
:101E3000202D2D2D2D2D2D20202D2D2D2D2D2D2DF9
:101E40002D2D2D202D2D2D0A00000000252D2A2EB0
:101E50002A73202533642000207265616479202074
:101E6000000000002073757370656E640000000050
:101E700020696E69742020200000000020636C6FD0
:101E800073652020000000002072756E6E696E6719
:101E90000000000020307825303878203078253058
:101EA000387820202020253032642525202020303D
:101EB00078253038782025730A0000002DE9F04796
:101EC00090B000270FF2C809082303AA0A210BA823
:101ED000FFF75AFD4FF008084A4641462EA000F091
:101EE000EDFF404600F002FB38A000F0E7FF00BF26
:101EF0000BA93846FFF75DFD0746002638E003A82A
:101F000050F82600A0F10C05FEF75CF98246287A0D
:101F100020F080009DF83410884203D05046FEF730
:101F200055F924E05046FEF751F92C46D4E9090151
:101F300023460822CDE90001414630A000F0BEFF53
:101F4000607A00F0010018B132A000F0B7FF02E0A3
:101F500034A000F0B3FF607A00F0020018B135A0A1
:101F600000F0ACFF02E036A000F0A8FF00BF761C36
:101F70000F98B042C3DC002FBAD101F08FFD0446A8
:101F8000214632A000F09AFF002010B0BDE8F08793
:101F900074696D6572000000252D2A2E7320207053
:101FA0006572696F64696320202074696D656F755F
:101FB0007420202020616374697661746564202038
:101FC0002020206D6F64650A00000000202D2D2D5B
:101FD0002D2D2D2D2D2D2D202D2D2D2D2D2D2D2D3E
:101FE0002D2D202D2D2D2D2D2D2D2D2D2D2D202D3B
:101FF0002D2D2D2D2D2D2D2D0A000000252D2A2EC5
:102000002A73203078253038782030782530387899
:10201000200000006163746976617465642020208B
:102020000000000064656163746976617465642012
:1020300000000000706572696F6469630A00000047
:102040006F6E652073686F740A00000063757272AA
:10205000656E74207469636B3A3078253038780A7D
:10206000000000001CB50A20012180230022CDE9D8
:102070000010054905A001F0E6FB044614B1204616
:1020800001F0D4FC00201CBD691900086C65645F78
:10209000746872656164000010B5044600F0CEFCFF
:1020A000FFF7E0FF10BD000010B51CA000F006FF18
:1020B0001F4801781FA000F001FF1D48007800F0C4
:1020C000010010B121A000F0F9FE1948007800F0DD
:1020D000020010B120A000F0F1FE1548007800F0D9
:1020E000080010B11FA000F0E9FE1148007800F0D0
:1020F000100010B11EA000F0E1FE0D48007800F0C5
:10210000800030B10A480C3001681CA000F0D6FEF7
:1021100002E01EA000F0D2FE10BD00006D656D2033
:102120006D616E616765206661756C743A0A0000C6
:1021300028ED00E05343425F434653525F4D465300
:10214000523A30782530325820000000494143434C
:1021500056494F4C200000004441434356494F4CE0
:10216000200000004D554E53544B45525220000064
:102170004D53544B45525220000000005343422D12
:102180003E4D4D41523A253038580A000A000000B1
:102190002DE9F04781460026002799F8000028B96C
:1021A0000021084600F08CF8BDE8F0871648056865
:1021B0001EE0D5F800804846FEF7CCF8824652462D
:1021C00041464846FEF7E4F888B926B947463846FE
:1021D000FEF7C0F806464146384602F002F90446CA
:1021E000B44200DA2646414608A000F067FE0C35EE
:1021F000074800688542DCD327B132463946484655
:1022000001F0AFFA00BFCFE71001002025730A00EC
:102210001401002038B504460D4601E0641C6D1E13
:102220002DB120782028F9D020780928F6D00DB9D2
:10223000002038BD6A4629462046FEF764FB08B9EF
:102240000098F6E7204600E0401C0178202902D0E3
:1022500001780029F8D100210170214602A000F088
:102260002DFE4FF0FF30E4E725733A20636F6D6D6C
:10227000616E64206E6F7420666F756E642E0A0046
:102280002DE9F04106460D4600270B4804680BE097
:102290002A4631462068FEF77BF820B92068405D69
:1022A00008B9A76804E00C34044800688442EFD3FE
:1022B00000BF3846BDE8F081100100201401002065
:1022C00070B505460E460AA000F0F8FD0F480468F8
:1022D00005E00FA0D4E9001200F0F0FD0C340F4827
:1022E00000688442F5D30EA000F0E8FD002070BD28
:1022F00052542D546872656164207368656C6C205B
:10230000636F6D6D616E64733A0A00001001002006
:10231000252D313673202D2025730A00140100204D
:102320000A0000002DE9F04782460E4690465446CA
:102330000025002755E003E000202070641C6D1C80
:102340002078202802D02078092801D1B542F3D383
:10235000082F12D326A000F0B1FD4FF0000906E0CF
:1023600058F829102AA000F0A9FD09F10109B94582
:10237000F6D326A000F0A2FD35E0B54200D332E04E
:10238000207822281CD1641C6D1C48F827407F1C33
:1023900009E020785C2804D16078222801D1641CEF
:1023A0006D1C641C6D1C2078222801D0B542F0D32E
:1023B000B54200D317E000202070641C6D1C10E0B3
:1023C00048F827407F1C01E0641C6D1C2078202801
:1023D00004D02078092801D0B542F5D3B54200D306
:1023E00001E0B542A7D300BF3846BDE8F087000042
:1023F000546F6F206D616E792061726773202120A8
:102400005765206F6E6C79205573653A0A0000009D
:10241000257320002DE9F04103460D4616460024A1
:102420000027A0462A48006800F4E060B0F5E06F9D
:1024300003D100BF4FF0040830E02548006800F4E5
:10244000E060B0F5C06F03D101274FF0030825E02D
:102450001F48006800F4E060B0F5A06F02D10227C9
:10246000B8461BE01A48006800F4E060B0F5806FE1
:1024700003D103274FF0010810E01548006800F46D
:10248000E060B0F5407F03D104274FF0000805E07D
:102490004FF4A06000F020F80227B846C7F104000E
:1024A00005FA00F4C8F104010F20C840304004438D
:1024B00024010848C45403F01F0101208840591129
:1024C000890001F1E021C1F80001BDE8F0810000C0
:1024D0000CED00E000E400E002490143024A116013
:1024E000704700000000FA050CED00E010B504464E
:1024F00002E004A000F0E2FC201EA4F10104F8D1E7
:1025000010BD00002D00000070B5846A4D6862198E
:10251000914214D0147804F0010484B9C46A94423E
:102520000DD0046B944200D1016300241460546800
:102530004C60846A0C1B856A56683544AC60846ABA
:102540008D6863198B4211D01C7804F001046CB9BA
:10255000046B8C4200D1036300240C604C685C6007
:10256000846A1C1B856A4E683544AC6070BD0000EF
:102570002DE9F04F86B00D469C46DDE910640196CA
:102580000F9B04F04008B8F1000F02D0DFF8708113
:1025900001E0DFF87081CDF8008004F01008B8F198
:1025A000000F01D024F0010404F00108B8F1000F7D
:1025B00002D04FF0300801E04FF02008C24600275B
:1025C00004F00208B8F1000F11D0002A02DA2D271A
:1025D00052420CE004F00408B8F1000F01D02B27A0
:1025E00005E004F00808B8F1000F00D02027002112
:1025F00042B94FF0300B8846491C0DF1080909F823
:1026000008B01DE01AE0E146B9F10A0F08D14FF019
:102610000A0BB2FBFBFE0BFB1E28B2FBFBF202E037
:1026200002F00F08120900BFDDF8009019F808B099
:102630008846491C0DF1080909F808B0002AE2D1C2
:10264000B14200DD0E469B1B04F01108B8F1000FEB
:1026500010D117B1002B00DD5B1E06E0A84203D2AB
:102660004FF0200880F80080401CB3F10008A3F16F
:102670000103F3DC27B1A84200D207705B1E401CA7
:1026800004F01008B8F1000F0AD104E0A84201D20A
:1026900080F800A0401CB3F10008A3F10103F5DCB1
:1026A00006E0A84203D24FF0300880F80080401CBA
:1026B000B046761E8845F4DC08E0A84205D20DF14C
:1026C000080818F8018080F80080401CB1F100086B
:1026D000A1F1010104DDDDF80480B8F1000FECD1B7
:1026E00006E0A84203D24FF0200880F80080401C8A
:1026F000B3F10008A3F10103F3DC06B0BDE8F08FED
:102700006B4B00085A4B00082DE9F04105461D2788
:10271000002400261A48046801E01948046804F0FF
:1027200045000028F9D004F0010030B11127012044
:1027300001F0C6FD3846BDE8F08104F0040028B180
:102740001327042001F0BCFD3846F4E701F08CFDAE
:10275000A84202D008273846EDE70A4801F0B0FD4C
:10276000002001F0CBFD06460748304010B91D2778
:102770003846E0E7304600F009F807463846DAE721
:10278000342C0140FF07C00008E0F9FD01461C2081
:1027900001F000420AB100204EE001F080420AB18F
:1027A000012049E001F000520AB1022044E001F0AA
:1027B00080520AB103203FE001F000620AB1042018
:1027C0003AE001F080620AB1052035E001F0807244
:1027D0000AB1062030E001F400020AB107202BE024
:1027E00001F480020AB1082026E001F400120AB1C7
:1027F000092021E001F480120AB10A201CE001F452
:1028000000220AB10B2017E001F480320AB10C203B
:1028100012E001F400420AB10D200DE001F4804203
:102820000AB10E2008E001F400520AB10F2003E0C3
:1028300001F0080202B11020704700002DE9F04FAE
:102840008CB0064600200A903EA090E8004CC0687C
:10285000CDE905BECDF810A007900FF2EC0ADAE939
:10286000000ACDE9020A0FF2E00ADAE9000ACDE92E
:10287000000A38480068C0F381000B900B9820B123
:10288000012804D0022828D103E0334927E0334946
:1028900025E03048001F006800F03F072D48001F6A
:1028A0000068C0F3881C2B48001F0068C0F301407B
:1028B000401C4FEA40092748001F006800F48008C8
:1028C000B8F5800F01D1254B00E0234BB3FBF7F0A7
:1028D00000FB0CF0B0FBF9F101E01F4900BF00BFA5
:1028E0001C480068C0F3031404A8055D21FA05F232
:1028F00018480068C0F3822402A8055D22FA05F09A
:10290000099014480068C0F342341DF8045022FABC
:1029100005F0089036B1012E06D0022E06D0032E07
:102920000AD106E00A9108E00A9206E009980A90A6
:1029300003E008980A9000E000BF00BF0A980CB0BE
:10294000BDE8F08F00000000000000000102030459
:1029500006070809083802400024F40000127A0033
:10296000074A02EB9011D1F8001800F01F03012272
:102970009A401143024B03EB9012C2F800187047C3
:1029800000300240074A02EB9011D1F8001800F025
:102990001F0301229A409143024B03EB9012C2F8AD
:1029A0000018704700300240074A02EB9011D1F83E
:1029B000001800F01F0301229A401143024B03EB61
:1029C0009012C2F800187047003002401CB5142065
:1029D0000A214FF480730022CDE90010044905A0BC
:1029E00000F031FF0446204601F020F81CBD000035
:1029F000992000086D61696E0000000070B5044602
:102A00000D4604FB05F000F0BDFA06462EB104FBAE
:102A100005F20021304600F026FB304670BD000074
:102A200010B5044C02E020688047241D024884420F
:102A3000F9D310BD144D00081C4D000810B5044C0E
:102A400002E020688047241D02488442F9D310BD6B
:102A50001C4D0008244D000870B519E000F01CFF63
:102A6000044604B915E0266F204600F0AAFB05468F
:102A7000012D02D1204600F056FB0EB12046B04792
:102A80002DB9A06A00F03AF8204600F03AFB00BFEA
:102A9000E4E700BF70BD000010B5FDF793FB0446EE
:102AA00004480088401C00B2024908802046FDF717
:102AB0008DFB10BDE800002010B5FDF783FB044638
:102AC0000C480088401E00B20A4908800846B0F948
:102AD000000000280ADC002008802046FDF776FB75
:102AE0000548006828B100F075FB02E02046FDF7BC
:102AF0006DFB10BDE8000020EC00002070B504461E
:102B000004B970BDFDF7EDFE0546204600F068FDF6
:102B10002846FDF7EBFE00BFF3E7000000487047D2
:102B2000DD07002000487047DD43002070B51A48DB
:102B300000684FF47A72B0FBF2F1481EB0F1807F6A
:102B400000D31BE0481E4FF0E022506150170F22C7
:102B5000002807DA13071D0E104B00F00F04241F86
:102B60001D5503E013071C0E0D4B1C5400BF002025
:102B70004FF0E02290610720106100BFFDF770FC6C
:102B8000FFF74EFFFFF7CEFF0446FFF7C7FF0546EE
:102B9000214600F001FE70BD4800002018ED00E065
:102BA00000E400E005480078012805D10020034931
:102BB0000870034800787047FF20FCE724010020DC
:102BC00020010020F8B50546002400260D200090C5
:102BD000284600F0BDFD064600BF0DE0285D0A282E
:102BE00004D101226946064801F002FF2919012299
:102BF000034801F0FDFE641CB442EFD3F8BD0000B1
:102C0000001001402DE9F041054605F128062C1D74
:102C10003248006840B13046304909688847074665
:102C20000FB9BDE8F08100BF2DA0216C00F046F97E
:102C30002FA0616A00F042F931A0A16A00F03EF9CC
:102C400033A0E16A00F03AF935A0216B00F036F9C3
:102C500037A0616800F032F939A0A16800F02EF9C0
:102C60003BA0E16800F02AF93DA0216900F026F9B7
:102C70003FA0616900F022F941A0A16900F01EF9AE
:102C800043A0E16900F01AF945A0216A00F016F9A5
:102C900047A0616B00F012F949A0A16B00F00EF99A
:102CA0004BA0E16B00F00AF9287800F0040038B17D
:102CB00000F094FE0746394649A000F0FFF802E014
:102CC0004FA000F0FBF8287800F0100010B953A0D6
:102CD00000F0F4F8FEF798FB00BFFEE70C010020BF
:102CE0007073723A203078253038780A000000007E
:102CF0007230303A203078253038780A00000000F1
:102D00007230313A203078253038780A00000000DF
:102D10007230323A203078253038780A00000000CE
:102D20007230333A203078253038780A00000000BD
:102D30007230343A203078253038780A00000000AC
:102D40007230353A203078253038780A000000009B
:102D50007230363A203078253038780A000000008A
:102D60007230373A203078253038780A0000000079
:102D70007230383A203078253038780A0000000068
:102D80007230393A203078253038780A0000000057
:102D90007231303A203078253038780A000000004F
:102DA0007231313A203078253038780A000000003E
:102DB0007231323A203078253038780A000000002D
:102DC000206C723A203078253038780A00000000F4
:102DD0002070633A203078253038780A00000000EF
:102DE00068617264206661756C74206F6E2074680F
:102DF000726561643A2025730D0A0D0A0000000017
:102E000068617264206661756C74206F6E20686101
:102E10006E646C65720D0A0D0A0000004650552064
:102E2000616374697665210D0A000000F0B50446FF
:102E30000D461646301D20F007004438014600229A
:102E400003E00D4F41F82270521C112AF9D34D6254
:102E50004FF0000CC1F828C0C1F82CC0C1F830C038
:102E6000C1F834C08B63CC634FF0807CC1F840C0A4
:102E700000270F60F0BD0000EFBEADDE10B5FDF71E
:102E8000A1F9044604480078401C03490870204614
:102E9000FDF79CF910BD00005800002010B5FDF7AB
:102EA00091F9044604480078401E03490870204602
:102EB000FDF78CF910BD0000580000200FB438B5A4
:102EC00005A80090FF210948009B049A00F05AFFD2
:102ED0000446FF2C00D9FF240448FFF773FE0020AE
:102EE0000090204638BC5DF814FB0000DC04002094
:102EF0004060006070474060006070470268516049
:102F000002680A60016048607047026851600268A8
:102F10000A6001604860704701460868884201D134
:102F2000012070470020FCE701460868884201D173
:102F3000012070470020FCE7014600200A4601E01E
:102F40001268401C13688B42FAD17047D0E9002107
:102F50005160D0E900121160406000607047D0E914
:102F600000215160D0E9001211604060006070479C
:102F7000D0E900215160D0E900121160406000608A
:102F80007047000070B50446FDF7ABFC06462146CD
:102F90000448006800F09AFA05463046FDF7A6FCA2
:102FA000284670BD900000202DE9F0410F461646DE
:102FB00004463D463346102B28D305F0030C04F09D
:102FC00003084CEA080CBCF1000F1FD121462A4629
:102FD00010E052F804CB41F804CB52F804CB41F88E
:102FE00004CB52F804CB41F804CB52F804CB41F89F
:102FF00004CB103B102BECD204E052F804CB41F888
:1030000004CB1B1F042BF8D20C46154603E015F821
:1030100001CB04F801CBB3F1000CA3F10103F6D10D
:10302000BDE8F08170B50C46014623468B4210D2B4
:103030009D188D420DD91144134405E05D1E2B46A9
:103040002E784D1E29462E70151EA2F10102F5D1D3
:1030500008E003E013F8015B01F8015B151EA2F123
:103060000102F7D170BDF0B50C460546E6B2042A60
:1030700015D300F0030797B9014646EA062343EA51
:10308000034304E008C108C108C108C1103A102A6E
:10309000F8D201E008C1121F042AFBD20D4601E05C
:1030A00005F8016B171EA2F10102F9D1F0BD2DE95F
:1030B000F04106460F46304600F044F80546E86801
:1030C000FFF760FF044614B90020BDE8F08100213D
:1030D0002046EA68FFF7C7FF2672002060720822C8
:1030E0003946204600F03DFBFDF76CF8804604F1C0
:1030F0000C01281DFFF702FF4046FDF767F8204648
:10310000E3E770B5044600202072FDF75BF8054642
:1031100004F10C00FFF71AFF2846FDF757F8204688
:10312000FFF7ECFC70BD70B5044600202072FDF77F
:1031300049F8054604F10C00FFF708FF2846FDF7A3
:1031400045F870BD024600210AE0074800EB011077
:103150000078904203D1044800EB01107047491CED
:103160000529F2DB0020F9E7940000202DE9F04763
:1031700004460D46904600262846FFF7E3FF074623
:10318000FFF78AFC7E6802E0A6F10C003668381D65
:103190008642F9D1FFF790FC45F0800020720822AA
:1031A0004146204600F0DDFAFDF70CF8814604F1B7
:1031B0000C01381DFFF7A2FE4846FDF707F8BDE8F1
:1031C000F0870146087A00F0800008B101207047BE
:1031D0000020FCE7F8B5FCF7F5FF06463F480088FD
:1031E000002875D13E480068002870D00027684646
:1031F000FDF7C0FB04463B48006890F8340000F03F
:103200000700032825D13748006890F83500009959
:10321000884202D23348046811E03248006890F8CE
:1032200035000099884209D12E48006890F8340092
:1032300000F0080010B92B48046800E00127294875
:10324000006890F8340020F008002649096881F8E9
:10325000340024480068844228D02349009808702C
:1032600020480568046017B1284600F041F8204660
:1032700000F08CF894F8340020F0070040F00300D0
:1032800084F834001948007848B904F11C0105F1AC
:103290001C00FCF79EFF3046FCF798FF1CE004F191
:1032A0001C0105F11C00FCF794FF0FE00D480068BD
:1032B00000F06CF80B48006890F8340020F007002C
:1032C00040F003000749096881F8340000BF00BFDF
:1032D0003046FCF77BFF00BFF8BD0000E80000208F
:1032E000E4000020EC000020F00000205800002046
:1032F00070B50446FCF766FF054621480068844225
:1033000008D194F8340020F0070040F0030084F85E
:10331000340030E014F8340F20F0070040F00100D2
:10332000207014F8340900F0080070B194F83520CA
:10333000144B03EBC20004F11401426811604268AF
:103340004A604160086000BF0EE094F835200D4BE4
:1033500003EBC20004F114010268516002680A60C4
:103360000160486000BF00BF0749A06B09680843BF
:103370000549086000BF2846FCF728FF70BD000023
:10338000EC000020DC050020E400002070B50446BD
:10339000FCF718FF054604F11400D0E90021516044
:1033A000D0E9001211604060006000BF94F8351051
:1033B000094A02EBC1000168814201D1012100E00C
:1033C000002129B10548A16B0068884303490860C2
:1033D0002846FCF7FBFE70BDDC050020E400002061
:1033E0002DE9F04104460D4616461F462A460221A5
:1033F0002046FFF7BBFE2046FDF77DFAA6836772E5
:103400000020BDE8F08100001CB50AA0FFF756FDC2
:103410000BA0FFF753FD13A015A101231A46CDE918
:103420000010042115A0FFF749FD1DA0FFF746FD80
:103430001CBD00000A205C207C202F0A0000000038
:103440002D205254202D20202020205468726561A8
:1034500064204F7065726174696E6720537973746C
:10346000656D0A0032333A33313A333400000000DC
:103470004F6374203232203230323500202F207CCE
:10348000205C202020202025642E25642E25642009
:103490006275696C642025732025730A00000000A2
:1034A0002032303036202D203230323220436F70BF
:1034B0007972696768742062792052542D54687259
:1034C000656164207465616D0A000000F0B507460F
:1034D0000B460BB90020F0BD3946D81C20F0030381
:1034E0000C2B00D20C23486B984201D20020F2E74B
:1034F000D1F828C0086BA0EB0C046BE0886A0219B5
:10350000107800F00100002861D104F10C00D2F81D
:1035100004C0ACEB0000984259D304F10C00D2F87F
:1035200004C0ACEB000C03F11800844523D304F174
:103530000C00C618886A851921F0010028605068BF
:103540006860AC605660D5F804C0486B0C308445A8
:1035500004D0886AD5F804C06044866003F10C008A
:10356000D1F820C060440862D1E908C0604513D298
:10357000086A486210E05068D1F828C0A2EB0C0C31
:10358000A0EB0C00D1F820C060440862D1E908C06B
:10359000604501D2086A486221F00100401C1060B9
:1035A000086B904210D106E0D1F830C0886ADCF890
:1035B00004C060440863086B007800F0010018B193
:1035C000D1E90BC06045EFD102F10C0083E7886AB6
:1035D00020444468486BC01AA0428FD200207AE78A
:1035E00070B5064606B970BDA6F10C04206820F03F
:1035F000010525F001002060286BA04200D92C6352
:103600006068A96A611A401A296A081A2862214664
:103610002846FEF779FF00BFE5E700002DE9F74FE8
:103620000E461746F01C20F0030404F1380B0BF192
:10363000030020F00308F01920F00309B9F1180F76
:1036400008D9A9F11800584504D3A9EB0800A0F146
:10365000180A07E0F21931461BA0FFF72FFC0020E3
:10366000BDE8FE8F382200212046FFF7FCFC0C212C
:103670002046009AFFF77AFD22A06061C4F8188006
:10368000C4F81CA0C4F834A0C4F82880A56A24F0AB
:1036900001002860606B0C3068600020A860A06AA0
:1036A00069680844E06224F00100401CE16A086097
:1036B000606B0C30E16A4860606B0C30E16A8860D6
:1036C000A06A20632046CBE76D656D20696E697442
:1036D0002C206572726F7220626567696E2061646A
:1036E000647265737320307825782C20616E6420B5
:1036F000656E642061646472657373203078257828
:103700000A000000736D616C6C0000000FB438B5E6
:10371000044606A800902046009A059900F0D2FCC5
:10372000054600200090284638BC5DF814FB0000D8
:103730000146002900DA49420B2902DD0348C06A2C
:103740007047024850F82100FAE7000060000020AE
:1037500001460A4600E0521C10780028FBD1501A9E
:10376000704770B50346A2B118460C4600BF14F866
:10377000016B00F8016B3EB902E0002500F8015B27
:10378000551E2A1EF9D102E0551E2A1EEFD100BF98
:1037900000BF184670BD00002DE9F04104460D46FB
:1037A000E01C20F0030625F00307BA1B214604A005
:1037B000FFF734FF0449086000BF00BFBDE8F08197
:1037C0006865617000000000900000200020094A38
:1037D0001080014607E0084A02EBC100406000602B
:1037E00000BF481C01462029F5DB0020034A106079
:1037F00070470000E8000020DC050020E400002005
:1038000038B56846FDF7B6F8044606480460204619
:10381000FFF7BCFD032084F8340004F11C00FCF722
:103820001EFD38BDEC00002010B5002405E0044961
:1038300001EBC400FFF75FFB641C002CF7D010BD48
:10384000F400002070472DE9FF5F06460F469046C2
:103850001D46DDE90EAB31460120FFF728FC81460D
:10386000B9F1000F03D1002004B0BDE8F09F284655
:10387000FFF788FB044624B94846FFF742FC0020C6
:10388000F2E743463A46314648468DE8300CFDF7AC
:10389000ADF84846E8E7000070B500250C4C2068FC
:1038A000A04213D02068A0F11405FCF78BFC06465B
:1038B00005F11400D0E900215160D0E90012116037
:1038C0004060006000BF3046FCF780FC284670BDB9
:1038D000500000200246054802F1140103685960B7
:1038E00003680B600160486000BF70475000002013
:1038F00010B50446204600F077F810BD01E0FFF750
:10390000ABF8FCE710B586B0002420E0224612A1F7
:1039100004A8FFF7FBFE20211F22CB00104800EB7C
:103920000420CDE9013203910090C4EB04110D4A4B
:1039300002EBC10000230C4A04A900F017F8C4EB05
:103940000411084A02EBC10000F070F8641C002C5E
:10395000DCD006B010BD00007469646C652564009D
:10396000DC03002064030020FD3800082DE9FF5F20
:1039700005460C4616461F46DDE910ABDDE90E890B
:10398000224601212846FFF7F1FB3B4632462146FD
:1039900028468DE8000FFDF729F804B0BDE8F09F38
:1039A00070B5044694F8340000F00700022802D0F5
:1039B0004FF0FF3070BDFCF705FC054604F1140024
:1039C000FFF7CDFA04F1440000F0C4F92046FFF7F8
:1039D0008FFC2846FCF7FAFB0020EBE70148006863
:1039E00070470000EC00002031B5FFF7F7FF0446F8
:1039F000FCF7E8FB054600202063204600F02AF88B
:103A00006A46002104F1440000F0C8F804F14400C3
:103A100000F024F92846FCF7D9FBFFF7DBFB206B0D
:103A2000801C08B900202063206B38BD10B5044607
:103A300094F8351001208840A063022084F83400F7
:103A40002046FFF7ADFFFFF7C9FF08B1FFF7C2FB44
:103A5000002010BD70B5044694F8340000F007054E
:103A6000012D04D0032D02D04FF0FF3070BDFCF7C4
:103A7000A9FB06462046FFF789FC94F8340020F0A5
:103A8000070040F0020084F8340004F1440000F024
:103A900061F93046FCF79AFB0020E7E7014800682F
:103AA000704700004C00002070B5FCF78BFB05460A
:103AB00010480068401C0F490860FFF78FFF04465C
:103AC000206C401E2064206C68B9E06B206494F880
:103AD000340040F0080084F834002846FCF776FBF8
:103AE000FFF778FB02E02846FCF770FB00F004F8D3
:103AF00070BD00004C0000207CB56846FFF7FBF964
:103B0000FFF7CCFF0546FCF75DFB06463AE022488E
:103B10000068A0F11404A06A281A6FF000418842DE
:103B20002ED22046FCF7D9FF607A00F0020018B9C7
:103B3000607A20F00100607204F114016846FFF71A
:103B4000E4F9D4E907108847FFF7A8FF054668465F
:103B5000FFF7E2F900B115E004F11400FFF708FAED
:103B6000607A00F0020060B1607A00F0010040B1BC
:103B7000607A20F001006072204600F06FF800E0EB
:103B800005E000BF0448FFF7C7F90028BFD000BF19
:103B90003046FCF71BFB7CBDF40000202DE9F04112
:103BA00004460E461546FCF70DFB0746062E21D2AD
:103BB000DFE806F00603090E131D606A28601AE0AC
:103BC0002868606217E0607A20F00200607212E0FC
:103BD000607A40F0020060720DE0607A00F001004F
:103BE00010B10120286001E00020286003E0A06AF5
:103BF000286000E000BF00BF3846FCF7E7FA00206D
:103C0000BDE8F08170B50446FCF7DCFA05462046B5
:103C1000FCF763FF607A20F0010060722846FCF731
:103C2000D5FA2046FFF77FFA002070BD2DE9F84352
:103C300007460C4615461E46DDE9088922460A213C
:103C40003846FFF793FA4346324629463846CDF8C0
:103C50000090FCF721FFBDE8F88300002DE9F84350
:103C600005464FF00008FCF7ADFA81462846FCF700
:103C700034FF687A20F001006872FFF70FFF696A6D
:103C80000844A862314F009700242AE019E05DF84B
:103C900024201168142202EBC402881A826AAB6ADB
:103CA000D21A00D108E0826AAB6AD21A6FF00043E0
:103CB0009A4200D20CE000BF5DF8240000684DF885
:103CC00024005DF8240007EBC40149688842DED176
:103CD00000BF2CB15DF824000830611C4DF82100B4
:103CE000641C002CD2D01A480068401C1849086097
:103CF0000846066805F114010098FFF706F902244A
:103D000012E006F0030060B9C4F1010305F11402EA
:103D100002EBC301C4F101025DF82200FFF7F5F8E0
:103D200000E003E0B608641C012CEAD900BF687A01
:103D300040F0010068724846FCF748FAB8F1000FFD
:103D400001D0FFF747FA0020BDE8F883F400002017
:103D5000FC00002070B50446607A00F0010010B944
:103D60004FF0FF3070BDFCF72DFA05462046FCF7FA
:103D7000B4FE607A20F0010060722846FCF726FA53
:103D80000020EFE72DE9FF4F89B081464C460A98A5
:103D900009EB00064E4504D24FF0FF36A6EB0900B2
:103DA0000A9077E10B980078252806D0B44202D219
:103DB0000B9800782070641C69E1002526E00B98C0
:103DC000401C0B900B9800782D2802D145F010056F
:103DD0001CE00B9800782B2802D145F0040515E073
:103DE0000B980078202802D145F008050EE00B98CA
:103DF0000078232802D145F0200507E00B980078D1
:103E0000302802D145F0010500E000E0D7E700BF0F
:103E10004FF0FF370B98007830380A2804D20BA8EF
:103E200000F0CCFA07460EE00B9800782A280AD159
:103E30000B98401C0B900C9880C80C90002F02DA55
:103E40007F4245F010054FF0FF3A0B9800782E287E
:103E50001CD10B98401C0B900B98007830380A2826
:103E600004D20BA800F0AAFA82460AE00B98007868
:103E70002A2806D10B98401C0B900C9850F804ABE4
:103E80000C90BAF1000F01DA4FF0000A0020049004
:103E90000B980078682803D00B9800786C2805D11F
:103EA0000B98007804900B98401C0B900A2005900A
:103EB0000B9800786F2873D00CDC632813D004DCD7
:103EC00025286ED058286DD195E064286BD06928DC
:103ED000F9D197E0702873D0732825D075286ED05B
:103EE0007828F0D18AE005F0100040B904E0B4422F
:103EF00001D220202070641C781E071EF7DC0C986D
:103F000010F8041B0C90C8B20790B44201D2079875
:103F10002070641C04E0B44201D220202070641C94
:103F2000781E071EF7DCB2E00C98006806900C982B
:103F3000001D0C90069808B960A006904FF000088C
:103F400001E008F10108B84504D0069810F808000F
:103F50000028F6D1BAF1000F02DDD04500DDD046D1
:103F600005F0100048B904E0B44201D220202070CE
:103F7000641C38467F1E4045F6DC002008900BE0AC
:103F8000B44202D2069800782070641C0698401C47
:103F900006900898401C089008984045F0DB09E01E
:103FA00026E01FE032E02CE00AE0B44201D22020FB
:103FB0002070641C38467F1E4045F6DC67E024E034
:103FC000781C10B9082745F00105CDE9007A029563
:103FD0000C9804C8102331460C902046FEF7C8FA0E
:103FE000044654E0B44201D225202070641C4EE007
:103FF000082005901DE045F0400500BF1020059009
:1040000017E000BF45F0020500BF12E0B44201D244
:1040100025202070641C0B98007830B1B44202D285
:104020000B9800782070641C02E00B98401E0B90E7
:104030002DE000BF04986C2807D10C9850F804BB01
:104040000C9005F00200B8B116E0049868280BD176
:104050000C9830F8041B1FFA81FB0C9005F002004D
:1040600050B10FFA8BFB07E00C9850F804BB0C9092
:1040700005F0020000B100BFCDE9007A02955A4672
:1040800031462046059BFEF773FA044600BF0B98A5
:10409000401C0B900B98007800287FF483AE0A98A0
:1040A00038B1B44202D20020207002E0002006F8AD
:1040B000010CA4EB09000DB0BDE8F08F284E554C63
:1040C0004C29000037B505460C4622464FF0FF311B
:1040D0002846029BFFF756FE3EBD00207047002099
:1040E0007047002070470020704710B5FCF76AF851
:1040F000FEF71CFDFFF788F9FFF796FBFFF766FB5D
:10410000FEF764FCFFF79EFBFFF7FCFBFFF778FB75
:10411000002010BD10B51D20464908704FF4807076
:1041200000F0E2F8E0B144480068012804D100F052
:1041300089F84049087002E01D203E4908704FF49C
:10414000807000F0CBF84CF23A3000F0BFF801205C
:104150003A49086000203A4908603648007810BDA6
:10416000022000F0C1F878B1022000F0B7F84CF25C
:104170003A3000F0ABF800203149086012202D4998
:10418000087008460078EAE7082000F0ADF878B13A
:10419000082000F0A3F84CF23A3000F097F8002025
:1041A0002749086014202349087008460078D6E79C
:1041B0004FF4007000F098F880B14FF4007000F0F8
:1041C0008DF84CF23A3000F081F800201C4908606C
:1041D00017201849087008460078C0E7102000F042
:1041E00083F878B1102000F079F84CF23A3000F002
:1041F0006DF800201249086015200E490870084625
:104200000078ACE7202000F06FF878B1202000F0B3
:1042100065F84CF23A3000F059F80020084908607F
:104220001620044908700846007898E7014800788D
:1042300095E700001C00002018000020200000204E
:104240002400002010B51D24402200210C2000F085
:1042500011F8002000F070F800F028F80C20FEF7AC
:1042600053FA0446204610BD01480068C0B27047AA
:10427000102C014030B5034600200B4C246824F478
:104280008064094D2C602C1F246800242D1F2C6095
:104290002C462160241D206820F0FF0043EA020420
:1042A00020432C1D206030BD0C2C014003480068C9
:1042B00040F4806001490860704700000C2C014008
:1042C0000149086070470000382C01400249096824
:1042D0008143014A116070473C2C0140014908604C
:1042E00070470000382C014001460020024A126845
:1042F0000A4002B101207047342C014001460020E1
:1043000031B1012907D0022909D003290FD10AE0D0
:10431000084A10680CE0074A121D106808E0054AB8
:104320000832106804E0034A0C32106800E000BF55
:1043300000BF7047142C01400549096821F4407101
:10434000034A11601146096801431160704700007B
:104350000C2C014070B5044607A0FEF7AFFD2046C7
:10436000FDF716FFFCF75AFD05462246294603A035
:10437000FEF7A4FD70BD00000A0000002573257340
:104380000000000070B5044625680DE0A5F1140694
:104390003246082106A0FEF791FD2868A04202D00F
:1043A00005A0FEF78BFD2D68A542EFD170BD000082
:1043B000252E2A73000000002F0000000146002077
:1043C00009E00B685A1C0A601A7800EB800302EBC4
:1043D0004302A2F130000A681278303A0A2AF0D378
:1043E000704710B503461A4601E0521C491C10786C
:1043F00028B1087818B110780C78A042F5D0D01AFE
:1044000010BD000008B500203F49096841F4803123
:104410003D4A116000BF3C49096801F4003129B9E7
:104420000146401C4FF6FF729142F4D136490968AB
:1044300001F4003131B900BF3349096801F400319A
:104440000029F9D030494031096841F080512E4AA5
:10445000403211602D49096841F440412B4A1160F6
:10446000294908310968284A08321160114609684B
:1044700041F4004111601146096841F4A0511160F6
:104480002349121F1160111F096841F08071121F2A
:10449000116000BF1C49096801F000710029F9D0C2
:1044A0001A49096841F48031184A116000BF174960
:1044B000496801F480310029F9D01449096841F4B0
:1044C0000031124A116000BF1049496801F40031FF
:1044D0000029F9D00C49083109680091009921F0B0
:1044E00003010091009941F002010091064A08324F
:1044F0000099116000BF04490831096801F0080102
:104500000029F8D008BD00000038024000700040CB
:104510000854400710B5FFF775FF10BD10B54FF4F4
:10452000E13000F077F8002010BD000010B51EA0AB
:10453000FEF7C4FC2048018820A0FEF7BFFC1E48FF
:10454000008800F0010010B122A0FEF7B7FC1A4865
:10455000008800F0020010B121A0FEF7AFFC164861
:10456000008800F0040010B120A0FEF7A7FC12485C
:10457000008800F0080010B11EA0FEF79FFC0E4856
:10458000008800F4807010B11CA0FEF797FC0A4868
:10459000008800F4007010B11BA0FEF78FFC05A08E
:1045A000FEF78CFC10BD00007573616765206661C5
:1045B000756C743A0A0000002AED00E05343425F34
:1045C000434653525F554653523A3078253032585D
:1045D00020000000554E444546494E535452200099
:1045E000494E56535441544520000000494E565000
:1045F000432000004E4F435020000000554E414CD8
:1046000049474E454420000044495642595A4552B4
:104610004F20000010B504464FF44060FEF7A0F9AB
:1046200040F60140FEF79CF941F20410FEF798F9BC
:104630004FF4004207212B48FCF76AFE08220721AD
:104640002948FCF765FE4FF400430122022125486A
:10465000FCF791FE4FF40043022200212148FCF7B1
:10466000B1FE0823012202211F48FCF784FE082323
:10467000022200211C48FCF7A5FE1C4800F0B6F8F9
:1046800021461A4800F034F80021184800F0A0F93B
:104690000021164800F0D4F90021144800F0C0F9B8
:1046A0000021124800F054F90021104800F046F9AA
:1046B00000210E4800F036F904210C4800F090F972
:1046C00008210A4800F0B4F940F20531074800F02B
:1046D00049F9002211462520FDF79CFE034800F011
:1046E000F3F810BD00000240000402400010014039
:1046F0002DE9F04704460D460027B846B946002686
:104700003349601A8C4235D00CDC32482044E8B181
:10471000B0F5806F1FD0B0F5006F21D0B0F5406FBD
:1047200032D122E0B0F5806F29D0B0F5184F03D018
:10473000B0F51C4F28D104E00320FEF77FF80746B0
:1047400023E00320FEF77AF807461EE00220FEF77A
:1047500075F8074619E00220FEF770F8074614E0E6
:104760000220FEF76BF807460FE00220FEF766F81E
:1047700007460AE00220FEF761F8074605E002203E
:10478000FEF75CF8074600E000BF00BFE06800F4F9
:10479000004070B1780000EB5500B0FBF5F64FF625
:1047A000F07006EA0008C6F3420948EA0900A06072
:1047B0000CE007EB5500B0FBF5F64FF6F07006EA9B
:1047C000000806F00F0948EA0900A060BDE8F0877C
:1047D0000078004000BCFFBF01464868C0F30800F5
:1047E0007047C1F3080242607047000010B50446EC
:1047F0003349601A8C424DD00CDC32482044E0B181
:10480000B0F5806F22D0B0F5006F31D0B0F5406FB9
:1048100052D136E0B0F5806F45D0B0F5184F03D0D7
:10482000B0F51C4F48D11AE040F60410FEF7BCF872
:1048300040F60410FEF7A6F83FE040F61100FEF740
:10484000B3F840F61100FEF79DF836E040F612008E
:10485000FEF7AAF840F61200FEF794F82DE040F6B5
:104860000510FEF7A1F840F60510FEF78BF824E0DE
:1048700040F61300FEF798F840F61300FEF782F8B2
:104880001BE040F61400FEF78FF840F61400FEF728
:1048900079F812E040F61E00FEF786F840F61E009A
:1048A000FEF770F809E040F61F00FEF77DF840F6CD
:1048B0001F00FEF767F800E000BF00BF10BD00005A
:1048C0000078004000BCFFBFC16841F40051C160E6
:1048D000704710B543F2080291420BD100EB9112E0
:1048E000126801F01F040123A3409A4300EB9113C7
:1048F0001A6007E001F01F0301229A40D24300EB47
:1049000091131A6010BD10B5024602EB91100068B9
:1049100001F01F040123A340184008B1012010BD7D
:104920000020FCE750F8C02F22F00102026002686C
:1049300001F001031A4340F8C0297047426922F48C
:1049400000724261426901F400731A434261704788
:10495000426922F480724261426901F480731A4311
:104960004261704710B500EB9112126801F01F040C
:104970000123A3401A4300EB91131A6010BD10B538
:1049800000EB91521268C1F304440123A3409A43FF
:1049900000EB91531A6010BD70B50246002300244D
:1049A000C1F38910105801F01F060125B54000EA37
:1049B000050302EB91500068C1F304460125B540A0
:1049C00000EA050414B10BB1012070BD0020FCE722
:1049D000C26822F4C062C260C2680A43C260704703
:1049E0000A460021C16821F004011143C1607047EB
:1049F0002DE9F04107460D46164600240CE0295DDE
:104A00003846FFF7EEFE00BF06213846FFF77BFF72
:104A10000028F9D0601C84B2B442F0DBBDE8F0811C
:104A2000026922F44052026102690A43026170473E
:104A30000A460021C16821F008011143C160704796
:104A4000C26822F48052C260C2680A43C2607047E2
:104A500010B5FEF7D9FC002010BD000001000200D7
:104A60000100030001000200010004000100020037
:104A70000100030001000200010005000100020026
:104A80000100030001000200010004000100020017
:104A90000100030001000200010006000100020005
:104AA00001000300010002000100040001000200F7
:104AB00001000300010002000100050001000200E6
:104AC00001000300010002000100040001000200D7
:104AD00001000300010002000100070001000200C4
:104AE00001000300010002000100040001000200B7
:104AF00001000300010002000100050001000200A6
:104B00000100030001000200010004000100020096
:104B10000100030001000200010006000100020084
:104B20000100030001000200010004000100020076
:104B30000100030001000200010005000100020065
:104B40000100030001000200010004000100020056
:104B5000010003000100020001003031323334351E
:104B60003637383961626364656600303132333418
:104B70003536373839414243444546004F4B0000F3
:104B800045494E56414C000045525346554C4C0049
:104B9000454E4F4D454D000045494F004552524F3F
:104BA00052000000454E4F535953000045494E54A2
:104BB000525054004554494D4F55540045554E4BA5
:104BC0004E4F57004542555359000000455253453A
:104BD00050545900252D2A2E73207072692020739D
:104BE0007461747573202020202020737020202091
:104BF0002020737461636B2073697A65206D61781E
:104C00002075736564206C656674207469636B201D
:104C1000206572726F720A00636C65617200636C6A
:104C200065617220746865207465726D696E616C6F
:104C30002073637265656E0076657273696F6E00CE
:104C400073686F772052542D5468726561642076C2
:104C5000657273696F6E20696E666F726D617469DB
:104C60006F6E006C6973745F746872656164006C68
:104C700069737420746872656164006C6973745F31
:104C800073656D006C6973742073656D6170686F16
:104C9000726520696E2073797374656D006C697339
:104CA000745F6D61696C626F78006C697374206DFC
:104CB00061696C20626F7820696E20737973746506
:104CC0006D006C6973745F74696D6572006C6973F3
:104CD000742074696D657220696E207379737465D0
:104CE0006D006C697374006C697374206F626A651F
:104CF0006374730068656C700052542D546872655B
:104D00006164207368656C6C2068656C702E0000AF
:104D1000E7400008DF4000081D450008DB400008B0
:104D2000B10E0008E3400008184C00081E4C0008B3
:104D3000D90C0008384C0008404C0008514A0008C3
:104D4000634C00086F4C0008D11C00087B4C000825
:104D5000844C0008991B00089D4C0008AA4C0008D0
:104D60003D1A0008C24C0008CD4C0008BD1E0008CA
:104D7000E24C0008E74C0008ED0C0008F44C000879
:104D8000F94C0008C1220008A84D000800000020CE
:104D900028010000C4080008D04E000828010020A7
:104DA000B8460000D4080008000000000000000021
:104DB00000000000000000000100000000000000F2
:104DC000000000001D0000000000000000000000C6
:104DD00000000000000000000000000000000000D3
:104DE00000000000000000000000000000000000C3
:104DF000007A030A0000000050000020500000204C
:104E000000000000000000007C4B00089C4B0008E4
:104E1000B44B0008884B0008CC4B0008904B0008AE
:104E2000A44B0008C44B0008984B0008AC4B00088A
:104E3000804B0008BC4B000800000000010000008F
:104E40009800002098000020780000000200000078
:104E5000A8000020A800002020000000050000009D
:104E6000B8000020B8000020300000000A00000058
:104E7000C8000020C80000202C0000000C0000002A
:104E8000D8000020D800002028000000000000000A
:104E90000000000000000000000000000000000012
:104EA0000000000000000000000000000000000002
:104EB00000000000000000000000000000000000F2
:104EC00000000000000000000000000000000000E2
:040000050800018965
:00000001FF
